:020000040800F2
:100000004004002001010008090100080B0100085C
:100010000D0100080F010008110100080000000098
:1000200000000000000000000000000013010008B4
:100030001501000800000000170100081901000860
:100040001B0100081B0100081B0100081B01000820
:100050001B0100081B0100081B0100081B01000810
:100060001B0100081B0100081B0100081B01000800
:100070001B0100081B0100081B0100081B010008F0
:100080001B0100081B0100081B0100081B010008E0
:100090001B0100081B0100081B0100081B010008D0
:1000A0001B0100081B0100081B0100081B010008C0
:1000B0001B0100081B0100081B0100081B010008B0
:1000C0001B0100081B0100081B0100081B010008A0
:1000D0001B0100081B0100081B0100081B01000890
:1000E0001B0100081B0100081B010008DFF80CD0F1
:1000F00000F08CFB00480047252200084004002047
:100100000648804706480047FEE7FEE7FEE7FEE7B1
:10011000FEE7FEE7FEE7FEE7FEE7FEE7ED1000087C
:10012000ED000008F0B480EA0102D40F4200B2EB07
:10013000410F02D20246084611464A0042D0C30D82
:10014000DDB2C1F3C752AD1A202D35DAC1F3160165
:1001500041F4000204B15242C5F1200602FA06F150
:100160002A411044B3EBD05F23D0C4B1012DA0EBE2
:10017000C35009DCF0BC4FF0004202EAC352DBB2CC
:1001800000F5000000F070B9400000F1807000EB55
:10019000C350A0F1807040EAD170490009E04908DD
:1001A00041EAC071A0EBC35000F50000400800EB2D
:1001B000C350F0BC00F04FB96142012202EB410193
:1001C000001BF6E7F0BC704781F00041AAE780F021
:1001D0000040A7E780EA010210B502F000434000AA
:1001E00022D04A001FD0010E01EB1261C0F356006D
:1001F000C2F3560240F4000042F40002A0FB0220C9
:1002000000047F39140400D0401C50EA124001D48D
:100210004000491EC2B20C0604EBD010401C40083E
:10022000802A02D003E0002010BD20F00100002948
:1002300000DA0020184310BD2DE9FE4F81EA0304C7
:1002400004F0004421F0004100944FF0000B23F033
:10025000004350EA01045ED052EA03045BD0C3F3CA
:100260000A54C1F30A552C44A4F2F3340194A0FBC0
:100270000254C1F3130141F48011C3F3130343F497
:10028000801301FB024400FB034E840A970A44EAF0
:10029000815447EA8357A4FB076802958D0A05FB42
:1002A00007854FEA932C04FB0C542705029D4FEA67
:1002B000065847EA1637B5EB08056EEB070C870EB4
:1002C000920E47EA811742EA8312A7FB0201B6EBBE
:1002D0000B0164EB00042B0D43EA0C335E1844EB76
:1002E0001C50DA465146E7FB0201C5F313044FEAFE
:1002F0000B3343EA14534FEA0432019C43EA0603EA
:10030000A4F10C040294009CCDE900B400F0E9F8DB
:1003100003B0BDE8F08F00200146F9E7002801DBBB
:10032000C0F10040002901DBC1F10041814201D34D
:10033000012070470020704700F0004220F000408C
:10034000C10DC0F3160040F400007F2901DA00203F
:100350007047962903DCC1F19601C84001E0963947
:100360008840002AF4D04042704700F0004230F04C
:1003700000400AD0C10D01F56071C0F3160042EAD9
:100380000151C208400711437047002001467047E1
:1003900001F0004330B421F0004150EA010206D0E0
:1003A0000A0DA2F56072C1F31301002A02DC30BC11
:1003B00000207047440F44EAC104C100E01830BC7B
:1003C00000EBC25000F047B830B50B4601460020A4
:1003D0002022012409E021FA02F59D4205D303FA07
:1003E00002F5491B04FA02F52844151EA2F1010288
:1003F000F1DC30BD2DE9F05F0546002092469B46BA
:1004000088460646814640241BE02846414647462A
:10041000224600F022FA53465A46C01A914110D3A0
:1004200011461846224600F009FA2D1A67EB01081A
:100430004F4622460120002100F000FA17EB000988
:100440004E41201EA4F10104DFDC484631462A4615
:100450004346BDE8F09F0029A8BF7047401C4900F3
:1004600008BF20F00100704710B4B0FA80FC00FA19
:100470000CF050EA010404BF10BC704749B1CCF144
:10048000200421FA04F411FA0CF118BF01212143D0
:100490000843A3EB0C01CB1D4FEA00614FEA10208B
:1004A00042BF002010BC704700EBC350104400292D
:1004B000A4BF10BC7047401C490008BF20F00100D9
:1004C00010BC704710B5141E73F1000408DA401C0C
:1004D00041F1000192185B411A4301D120F0010063
:1004E00010BD2DE9F04D92469B4611B1B1FA81F253
:1004F00002E0B0FA80F22032904600F09FF9044604
:100500000F4640EA0A0041EA0B0153465A460843A7
:1005100013D0114653EA010019D0C8F140025046E9
:1005200000F09BF905460E4650465946424600F0FB
:1005300085F9084305D0012004E020463946BDE88E
:10054000F08D0020054346EAE0762C4337430A98B5
:100550006305E40AA0EB08000022FD0A44EA4754C0
:100560000A3002D500200146E9E70105101969416A
:10057000DDE9084500196941BDE8F04DA2E72DE924
:10058000FE4F804681EA0300C00F0C46009021F028
:10059000004123F00045B8EB0200A94105D24046D6
:1005A000214690461C460B46024623F0004010436D
:1005B00047D0270DC7F30A00C3F30A510290401A2F
:1005C000019040286BDAC3F3130040F4801B0098BD
:1005D000924620B10023D2EB030A63EB0B0B019888
:1005E0005946C0F14002504600F028F906460D4633
:1005F00050465946019A00F040F910EB080061415D
:10060000002487EA115284EAE7731A4340D0009A23
:1006100062B3019A012A4FEA075215DC001B61EB15
:1006200002014FF0004202EA0752CDE90042001CED
:1006300041F5801132462B46FFF753FF03B0BDE86A
:10064000F08F40462146F9E7001B61EB0201001CD8
:1006500041F5801300185B412018A2F5001747EB05
:10066000030140EAD570B6196D4111E06D084FEAFB
:10067000360645EAC0754FEA0752001B61EB0201DE
:10068000001C41F5801149084FEA30000019514122
:1006900032462B4603B0BDE8F04FFFF713BF00987A
:1006A000012240000023D0EB020263EBE0730098CC
:1006B00021464FEAE074B8EB000061EB0401E9E782
:1006C00083F000435BE781F0004158E72DE9F04DEE
:1006D00081EA030404F0004B21F0004514464FF07A
:1006E000000A23F0004150EA050220D054EA01023A
:1006F0001DD0C5F30A570246C5F31303C1F3130017
:10070000C1F30A5640F4801543F48013A7EB0608A2
:10071000101BD64608F2FD3873EB050002D308F132
:10072000010801E092185B41B8F1000F03DA0020E4
:100730000146BDE8F08D00204FF480110646844646
:100740000EE0171B73EB050705D3121B63EB0503C4
:1007500006434CEA010C49084FEA300092185B410D
:1007600050EA0107EDD152EA030012D082EA0400F8
:1007700083EA0501084305D0101BAB4106D20122D4
:10078000002306E000224FF0004302E06FF0010278
:1007900053101AEB06004CEB085110EB0A0041EB2A
:1007A0000B01BDE8F04DFFF78DBEC1F30A52C1F356
:1007B000130140F2FF3341F480119A4202DA002023
:1007C0000146704740F233439A42A2F2334202DCC0
:1007D000524200F042B800F031B8000030B5041EBB
:1007E00071F1000404DB4FF00044404264EB01016E
:1007F000141E73F1000405DB1C464FF00043524207
:1008000063EB0403994208BF904230BD1CB5094810
:100810000090094801900546009C06E0E06840F021
:10082000010394E8070098471034AC42F6D3FFF771
:1008300061FC0000C82C0008E82C0008202A04DB1A
:10084000203A00FA02F1002070479140C2F12003E3
:1008500020FA03F3194390407047202A04DB203A22
:1008600021FA02F00021704721FA02F3D040C2F1D0
:1008700020029140084319467047202A06DBCB1717
:10088000203A41FA02F043EAE07306E041FA02F34B
:10089000D040C2F120029140084319467047000041
:1008A00080B584B040F23800C2F200000168002038
:1008B000019000F00BFA01460198039140F23001DB
:1008C000C2F20001096800F001FA029040F2100043
:1008D000C2F20000006800283FD0FFE7029848F20B
:1008E0000001C4F2BB410091FFF71CFC0399FFF724
:1008F0006BFCFFF721FD009940F23442C4F2000284
:1009000010800298FFF70EFC0399FFF70BFCFFF72E
:1009100013FD0146009840F23842C4F200021180F3
:100920000299FFF751FC0399FFF74EFCFFF704FD16
:100930000146009840F23C42C4F200021180029944
:10094000FFF742FC0399FFF7EDFBFFF7F5FC40F2E0
:100950004041C4F20001088002E000F079F9FFE7AD
:1009600004B080BD42F63440C4F201000088B0F506
:100970007A7F07DAFFE740F21001C2F2000100209F
:10098000086006E040F21001C2F200010120086098
:10099000FFE7704780B588B007900691002005906A
:1009A00004900390029001900090079840F6000197
:1009B000C4F20101884230D0FFE7079840F60041B9
:1009C000C4F20101884228D0FFE7079841F20001F4
:1009D000C4F20101884220D0FFE7079841F20041AC
:1009E000C4F20101884218D0FFE7079841F60001E0
:1009F000C4F20101884210D0FFE7079841F6004198
:100A0000C4F20101884208D0FFE7079842F20001D2
:100A1000C4F20101884201D1FFE707E042F6F63057
:100A2000C0F60000B42101F0E7FBFFE70698C078AC
:100A300018B3FFE70698C07804281ED0FFE7069891
:100A4000C078282819D0FFE70698C078482814D025
:100A5000FFE70698C07814280FD0FFE70698C07803
:100A600010280AD0FFE70698C0781C2805D0FFE7B9
:100A70000698C078182801D1FFE707E042F6F63063
:100A8000C0F60000B52101F0B7FBFFE7002028B950
:100A9000FFE70698008808B1FFE707E042F6F63066
:100AA000C0F60000B62101F0A7FBFFE70698C0786A
:100AB00000F00F0005900698C078C00600281ED5EB
:100AC000FFE70698807801280AD0FFE7069880782B
:100AD000022805D0FFE706988078032801D1FFE7B8
:100AE00007E042F6F630C0F60000BD2101F084FBBD
:100AF000FFE706988178059808430590FFE7069878
:100B0000007800284BD0FFE707980068019000208C
:100B10000390FFE7039807283DD8FFE703990120DA
:100B20008840029006980088029908400490049832
:100B3000029988422AD1FFE7039880000290029927
:100B40000F208840009000990198884301900598F3
:100B5000029900FA01F10198084301900698C078C3
:100B6000282806D1FFE703990120884007994861AA
:100B70000BE00698C078482806D1FFE703990120CA
:100B8000884007990861FFE7FFE7FFE7FFE7039861
:100B900001300390BEE7019807990860FFE70698C7
:100BA0000088B0F5807F50DBFFE707984068019030
:100BB00000200390FFE70398072842D8FFE7039837
:100BC00000F10801012088400290069800880299EF
:100BD000084004900498029988422DD1FFE70398B9
:100BE0008000029002990F2088400090009901989F
:100BF000884301900598029900FA01F10198084391
:100C000001900698C078282808D1FFE7039800F1E2
:100C100008010120884007994861FFE70698C078DD
:100C2000482808D1FFE7039800F108010120884017
:100C300007990861FFE7FFE7FFE70398013003909A
:100C4000B9E7019807994860FFE708B080BD000048
:100C500080B500F0ABF940F22C00C2F20000006851
:100C60000021C4F2F011FFF759FBB8B9FFE740F2D9
:100C70003441C4F200014FF4AF60088040F23841C3
:100C8000C4F20001088040F23C41C4F20001088037
:100C900040F24041C4F20001088016E040F23441C5
:100CA000C4F2000140F2DC50088040F23841C4F246
:100CB0000001088040F23C41C4F20001088040F28B
:100CC0004041C4F200010880FFE780BD80B58AB0D2
:100CD0000990089109980899FFF776FA014640F2C1
:100CE0001800C2F2000002900160016840F2280082
:100CF000C2F2000001900068FFF714FA019A014661
:100D000002981160006840F23401C2F200010091C3
:100D10000968FFF759FA009B019902460298079269
:100D200002681A6040F20C02C2F2000212680492D9
:100D30000068039040F20800C2F2000000680968F1
:100D4000FFF748FA0399024604980592FFF742FA22
:100D50000599FFF7E7F9069040F20400C2F200009F
:100D600000680799FFF736FA0699FFF7DBF90AB032
:100D700080BD000080B58CB002200121039100F0FD
:100D80004FF80399082000F091F83320ADF82C00BB
:100D900018208DF82F0003208DF82E0040F600401B
:100DA000C4F201000BA9FFF7F5FD44F61F60ADF892
:100DB00026004720ADF8220000200090ADF8280062
:100DC000ADF8240040F20040C4F2000002900DF1A2
:100DD000220101F057F800990298039A6023ADF8B8
:100DE0001230ADF8142040F2DC52ADF81820ADF806
:100DF0001A100DF11201019100F066FA01990298A2
:100E000000F030FC0199029800F0B8FD01990298B9
:100E100000F028FF0298039900F09CF90CB080BD07
:100E200080B582B001908DF80310019843F2006103
:100E3000C8F20111084204D1FFE7019808B1FFE7A9
:100E400008E042F64630C0F6000040F26B4101F087
:100E5000D3F9FFE79DF8030028B1FFE79DF80300F1
:100E6000012801D1FFE708E042F64630C0F6000055
:100E700040F26C4101F0C0F9FFE79DF8030048B172
:100E8000FFE7019A41F21C01C4F202010868104315
:100E9000086008E0019A41F21C01C4F202010868EE
:100EA00090430860FFE702B080BD000080B582B0CB
:100EB00001908DF8031001980221CFF6C07108420D
:100EC00004D1FFE7019808B1FFE708E042F6463099
:100ED000C0F6000040F24C4101F08EF9FFE79DF8AA
:100EE000030028B1FFE79DF80300012801D1FFE7C7
:100EF00008E042F64630C0F6000040F24D4101F0F5
:100F00007BF9FFE79DF8030048B1FFE7019A41F242
:100F10001801C4F2020108681043086008E0019A51
:100F200041F21801C4F20201086890430860FFE72B
:100F300002B080BD80B584B040F21C00C2F2000057
:100F400001900021016040F22000C2F20000016027
:100F500040F22402C2F2000211600068FFF705FAB5
:100F600048F65C72CFF2C252029245F62843C3F6AD
:100F7000EF730393FFF760F9FFF70AFA0146019850
:100F800040F23002C2F2000211600068FFF7EDF992
:100F9000029A039BFFF750F9FFF7FAF940F2380184
:100FA000C2F20001086004B080BD000040F22C01D4
:100FB000C2F200010020C4F248200860704700001F
:100FC00080B500F001F880BD84B00020039002904D
:100FD00041F20001C4F20201086840F48030086068
:100FE000FFE741F20000C4F20200006800F40030A4
:100FF0000290039801300390FFE7029900200190CE
:1010000039B9FFE70398B0F5A06018BF012001903F
:10101000FFE70198C0070028E3D1FFE741F2000095
:10102000C4F2020000688003002803D5FFE7012016
:10103000029002E000200290FFE70298012851D1BF
:10104000FFE742F20001C4F20201086840F010001C
:101050000860086820F003000860086840F002009B
:10106000086041F20401C4F20201009108680860BE
:1010700008680860086840F480600860086820F428
:101080007C100860086840F4E810086041F2000134
:10109000C4F20201086840F080700860FFE741F286
:1010A0000000C4F2020000688001002801D4FFE7BC
:1010B000F5E741F20401C4F20201086820F00300E0
:1010C0000860086840F002000860FFE741F2040091
:1010D000C4F20200006800F00C00082801D0FFE70D
:1010E000F4E700E0FFE704B07047000080B541F28C
:1010F0000002C4F20202106840F00100106041F2E8
:101100000401C4F2020108680023CFF6FF0318406F
:10111000086010684FF6FF73CFF6F6631840106052
:10112000106820F480201060086820F4FE00086039
:1011300041F20801C4F202014FF41F000860FFF7FA
:101140003FFF4EF60851CEF200014FF000600860FC
:1011500080BD000080B582B001908DF80310019829
:1011600042F60041C4F2010188427DD0FFE70198B8
:10117000B0F1804F78D0FFE7019840F20041C4F20F
:101180000001884270D0FFE7019840F60001C4F2E8
:101190000001884268D0FFE7019840F60041C4F2A0
:1011A0000001884260D0FFE7019841F20001C4F2DB
:1011B0000001884258D0FFE7019841F20041C4F293
:1011C0000001884250D0FFE7019843F20041C4F289
:1011D0000101884248D0FFE7019844F60041C4F27B
:1011E0000101884240D0FFE7019845F20001C4F2B6
:1011F0000101884238D0FFE7019845F20041C4F26E
:101200000101884230D0FFE7019841F60001C4F2A5
:101210000001884228D0FFE7019841F60041C4F25E
:101220000001884220D0FFE7019842F20001C4F299
:101230000001884218D0FFE7019844F20001C4F28F
:101240000101884210D0FFE7019844F20041C4F246
:101250000101884208D0FFE7019844F60001C4F27A
:101260000101884201D1FFE708E042F69E30C0F656
:10127000000040F22B3100F0BFFFFFE79DF80300B4
:1012800028B1FFE79DF80300012801D1FFE708E03E
:1012900042F69E30C0F600004FF44B7100F0ACFFF8
:1012A000FFE79DF8030030B1FFE70199088840F09F
:1012B0000100088005E00199088820F001000880FD
:1012C000FFE702B080BD000080B584B003900291BA
:1012D0000020ADF80600ADF80400ADF80200039858
:1012E00042F60041C4F2010188426DD0FFE7039845
:1012F000B0F1804F68D0FFE7039840F20041C4F29C
:101300000001884260D0FFE7039840F60001C4F274
:101310000001884258D0FFE7039840F60041C4F22C
:101320000001884250D0FFE7039843F20041C4F225
:101330000101884248D0FFE7039844F60041C4F217
:101340000101884240D0FFE7039845F20001C4F252
:101350000101884238D0FFE7039845F20041C4F20A
:101360000101884230D0FFE7039841F60001C4F242
:101370000001884228D0FFE7039841F60041C4F2FB
:101380000001884220D0FFE7039842F20001C4F236
:101390000001884218D0FFE7039844F20001C4F22C
:1013A0000101884210D0FFE7039844F20041C4F2E3
:1013B0000101884208D0FFE7039844F60001C4F217
:1013C0000101884201D1FFE708E042F69E30C0F6F5
:1013D00000004FF48F7100F00FFFFFE702980088C4
:1013E000C8B1FFE702980088102814D0FFE70298E0
:1013F000008820280FD0FFE70298008830280AD004
:10140000FFE702980088602805D0FFE7029800886F
:10141000702801D1FFE708E042F69E30C0F60000D8
:1014200040F21F1100F0E8FEFFE70298408828B163
:10143000FFE702984088012801D1FFE708E042F663
:101440009E30C0F600004FF4907100F0D5FEFFE72B
:101450000298008928B1FFE702980089022801D18B
:10146000FFE708E042F69E30C0F6000040F221118E
:1014700000F0C2FEFFE70399088C20F00100088409
:101480000398008CADF8040003988088ADF8020042
:101490000398008BADF80600BDF8060020F0700040
:1014A000ADF80600BDF8060020F00300ADF8060018
:1014B00002980188BDF806000843ADF80600BDF8A3
:1014C000040020F00200ADF8040002980189BDF884
:1014D00004000843ADF8040002984188BDF80400F8
:1014E0000843ADF80400039842F60041C4F201013C
:1014F000884221D0FFE7039843F20041C4F2010182
:10150000884219D0FFE7039844F20001C4F20101B8
:10151000884211D0FFE7039844F20041C4F2010170
:10152000884209D0FFE7039844F60001C4F20101A4
:10153000884240F08480FFE70298808828B1FFE766
:1015400002988088042801D1FFE708E042F69E3027
:10155000C0F600004FF49F7100F04EFEFFE70298C6
:10156000408928B1FFE702984089082801D1FFE7A8
:1015700008E042F69E30C0F6000040F23F1100F055
:101580003BFEFFE70298C089B0F5007F04D0FFE77B
:101590000298C08908B9FFE708E042F69E30C0F61D
:1015A00000004FF4A07100F027FEFFE70298808949
:1015B000B0F5807F04D0FFE70298808908B9FFE783
:1015C00008E042F69E30C0F6000040F2411100F003
:1015D00013FEFFE7BDF8040020F00800ADF804009A
:1015E00002984189BDF804000843ADF80400BDF835
:1015F000040020F00400ADF8040002988188BDF8D2
:1016000004000843ADF80400BDF8020020F4807027
:10161000ADF80200BDF8020020F40070ADF8020041
:1016200002988189BDF802000843ADF802000298D3
:10163000C189BDF802000843ADF80200FFE7BDF81C
:10164000020003998880BDF8060003990883029878
:10165000C08803998886BDF804000399088404B003
:1016600080BD000080B584B0039002910020ADF8E9
:101670000600ADF80400ADF80200039842F6004100
:10168000C4F2010188423DD0FFE70398B0F1804FDA
:1016900038D0FFE7039840F20041C4F200018842CD
:1016A00030D0FFE7039840F60001C4F20001884201
:1016B00028D0FFE7039840F60041C4F200018842B9
:1016C00020D0FFE7039843F20041C4F201018842B1
:1016D00018D0FFE7039844F60041C4F201018842A4
:1016E00010D0FFE7039841F60001C4F200018842E0
:1016F00008D0FFE7039844F20001C4F201018842D8
:1017000001D1FFE708E042F69E30C0F6000040F24B
:10171000711100F071FDFFE702980088C8B1FFE782
:1017200002980088102814D0FFE70298008820282B
:101730000FD0FFE70298008830280AD0FFE7029810
:101740000088602805D0FFE702980088702801D142
:10175000FFE708E042F69E30C0F600004FF4B97192
:1017600000F04AFDFFE70298408828B1FFE70298A1
:101770004088012801D1FFE708E042F69E30C0F61C
:10178000000040F2731100F037FDFFE70298008976
:1017900028B1FFE702980089022801D1FFE708E09D
:1017A00042F69E30C0F600004FF4BA7100F024FDFE
:1017B000FFE70399088C20F0100008840398008C40
:1017C000ADF8040003988088ADF802000398008B00
:1017D000ADF80600BDF8060020F4E040ADF80600C4
:1017E000BDF8060020F44070ADF8060002980188AC
:1017F000BDF8060040EA0120ADF80600BDF804007F
:1018000020F02000ADF8040002980189BDF8040022
:1018100040EA0110ADF8040002984188BDF80400C8
:1018200040EA0110ADF80400039842F60041C4F20A
:101830000101884209D0FFE7039843F20041C4F256
:101840000101884240F08880FFE70298808828B133
:10185000FFE702988088042801D1FFE708E042F6FC
:101860009E30C0F6000040F2911100F0C5FCFFE789
:101870000298408928B1FFE702984089082801D1E1
:10188000FFE708E042F69E30C0F600004FF4C97151
:1018900000F0B2FCFFE70298C089B0F5007F04D0E9
:1018A000FFE70298C08908B9FFE708E042F69E30DA
:1018B000C0F6000040F2931100F09EFCFFE7029892
:1018C0008089B0F5807F04D0FFE70298808908B94D
:1018D000FFE708E042F69E30C0F600004FF4CA7100
:1018E00000F08AFCFFE7BDF8040020F08000ADF8AE
:1018F000040002984189BDF8040040EA0110ADF8E7
:101900000400BDF8040020F04000ADF80400029887
:101910008188BDF8040040EA0110ADF80400BDF86C
:10192000020020F48060ADF80200BDF8020020F44F
:101930000060ADF8020002988189BDF8020040EA1B
:101940008100ADF802000298C189BDF8020040EAAA
:101950008100ADF80200FFE7BDF80200039988801E
:10196000BDF80600039908830298C0880399088788
:10197000BDF804000399088404B080BD80B584B02C
:10198000039002910020ADF80600ADF80400ADF818
:101990000200039842F60041C4F20101884225D0BA
:1019A000FFE70398B0F1804F20D0FFE7039840F2A3
:1019B0000041C4F20001884218D0FFE7039840F6C6
:1019C0000001C4F20001884210D0FFE7039840F6FE
:1019D0000041C4F20001884208D0FFE7039843F2B7
:1019E0000041C4F20101884201D1FFE708E042F65C
:1019F0009E30C0F6000040F2C31100F0FDFBFFE78F
:101A000002980088C8B1FFE702980088102814D017
:101A1000FFE70298008820280FD0FFE7029800888F
:101A200030280AD0FFE702980088602805D0FFE739
:101A300002980088702801D1FFE708E042F69E3046
:101A4000C0F600004FF4E27100F0D6FBFFE7029809
:101A5000408828B1FFE702984088012801D1FFE7BC
:101A600008E042F69E30C0F6000040F2C51100F0DA
:101A7000C3FBFFE70298008928B1FFE702980089BD
:101A8000022801D1FFE708E042F69E30C0F60000D0
:101A90004FF4E37100F0B0FBFFE70399088C20F4EA
:101AA000807008840398008CADF804000398808847
:101AB000ADF802000398808BADF80600BDF8060073
:101AC00020F07000ADF80600BDF8060020F003001D
:101AD000ADF8060002980188BDF806000843ADF88D
:101AE0000600BDF8040020F40070ADF80400029870
:101AF0000189BDF8040040EA0120ADF80400029815
:101B00004188BDF8040040EA0120ADF804000398C4
:101B100042F60041C4F20101884209D0FFE7039870
:101B200043F20041C4F20101884240F08880FFE79F
:101B30000298808828B1FFE702988088042801D1A4
:101B4000FFE708E042F69E30C0F600004FF4F17166
:101B500000F052FBFFE70298408928B1FFE70298A6
:101B60004089082801D1FFE708E042F69E30C0F620
:101B7000000040F2E31100F03FFBFFE70298C0894C
:101B8000B0F5007F04D0FFE70298C08908B9FFE7ED
:101B900008E042F69E30C0F600004FF4F27100F00B
:101BA0002BFBFFE702988089B0F5807F04D0FFE728
:101BB0000298808908B9FFE708E042F69E30C0F637
:101BC000000040F2E51100F017FBFFE7BDF804004C
:101BD00020F40060ADF8040002984189BDF80400CB
:101BE00040EA0120ADF80400BDF8040020F4806054
:101BF000ADF8040002988188BDF8040040EA012095
:101C0000ADF80400BDF8020020F48050ADF80200E9
:101C1000BDF8020020F40050ADF80200029881895E
:101C2000BDF8020040EA0110ADF802000298C18937
:101C3000BDF8020040EA0110ADF80200FFE7BDF870
:101C4000020003998880BDF80600039988830298F2
:101C5000C08803998887BDF804000399088404B0FC
:101C600080BD000080B584B0039002910020ADF8E3
:101C70000600ADF80400ADF80200039842F60041FA
:101C8000C4F20101884225D0FFE70398B0F1804FEC
:101C900020D0FFE7039840F20041C4F200018842DF
:101CA00018D0FFE7039840F60001C4F20001884213
:101CB00010D0FFE7039840F60041C4F200018842CB
:101CC00008D0FFE7039843F20041C4F201018842C3
:101CD00001D1FFE708E042F69E30C0F6000040F276
:101CE000122100F089FAFFE702980088C8B1FFE7E7
:101CF00002980088102814D0FFE702980088202856
:101D00000FD0FFE70298008830280AD0FFE702983A
:101D10000088602805D0FFE702980088702801D16C
:101D2000FFE708E042F69E30C0F6000040F21321C3
:101D300000F062FAFFE70298408828B1FFE70298B6
:101D40004088012801D1FFE708E042F69E30C0F646
:101D500000004FF4057100F04FFAFFE70298008988
:101D600028B1FFE702980089022801D1FFE708E0C7
:101D700042F69E30C0F6000040F2152100F03CFA19
:101D8000FFE70399088C20F4805008840398008CA6
:101D9000ADF8040003988088ADF802000398808BAA
:101DA000ADF80600BDF8060020F4E040ADF80600EE
:101DB000BDF8060020F44070ADF8060002980188D6
:101DC000BDF8060040EA0120ADF80600BDF80400A9
:101DD00020F40050ADF8040002980189BDF8040019
:101DE00040EA0130ADF8040002984188BDF80400D3
:101DF00040EA0130ADF80400039842F60041C4F215
:101E00000101884208D0FFE7039843F20041C4F281
:101E10000101884223D1FFE702988089B0F5807FD5
:101E200004D0FFE70298808908B9FFE708E042F68E
:101E30009E30C0F6000040F2322100F0DDF9FFE7ED
:101E4000BDF8020020F48040ADF8020002988189BC
:101E5000BDF8020040EA8110ADF80200FFE7BDF8CE
:101E6000020003998880BDF80600039988830298D0
:101E7000C0880399A1F84000BDF8040003990884C4
:101E800004B080BD80B584B0039002910020ADF80D
:101E90000600039842F60041C4F2010188427DD059
:101EA000FFE70398B0F1804F78D0FFE7039840F246
:101EB0000041C4F20001884270D0FFE7039840F669
:101EC0000001C4F20001884268D0FFE7039840F6A1
:101ED0000041C4F20001884260D0FFE7039841F25C
:101EE0000001C4F20001884258D0FFE7039841F294
:101EF0000041C4F20001884250D0FFE7039843F24A
:101F00000041C4F20101884248D0FFE7039844F63B
:101F10000041C4F20101884240D0FFE7039845F236
:101F20000001C4F20101884238D0FFE7039845F26E
:101F30000041C4F20101884230D0FFE7039841F626
:101F40000001C4F20001884228D0FFE7039841F65F
:101F50000041C4F20001884220D0FFE7039842F21A
:101F60000001C4F20001884218D0FFE7039844F250
:101F70000001C4F20101884210D0FFE7039844F247
:101F80000041C4F20101884208D0FFE7039844F6FB
:101F90000001C4F20101884201D1FFE707E042F6E7
:101FA0009E30C0F60000E92100F026F9FFE7029814
:101FB0004088A0B1FFE70298408810280FD0FFE7C3
:101FC0000298408820280AD0FFE7029840884028DD
:101FD00005D0FFE702984088602801D1FFE707E0BD
:101FE00042F69E30C0F60000EA2100F005F9FFE756
:101FF0000298C08860B1FFE70298C088B0F5807F82
:1020000006D0FFE70298C088B0F5007F01D1FFE756
:1020100007E042F69E30C0F60000EB2100F0ECF83D
:10202000FFE703980088ADF80600039842F60041E8
:10203000C4F20101884225D0FFE7039843F2004132
:10204000C4F2010188421DD0FFE70398B0F1804F30
:1020500018D0FFE7039840F20041C4F20001884223
:1020600010D0FFE7039840F60001C4F20001884257
:1020700008D0FFE7039840F60041C4F2000188420F
:102080000ED1FFE7BDF8060020F07000ADF80600A5
:1020900002984188BDF806000843ADF80600FFE746
:1020A000039841F20001C4F20001884216D0FFE714
:1020B000039841F20041C4F2000188420ED0FFE7CC
:1020C000BDF8060020F44070ADF806000298C18803
:1020D000BDF806000843ADF80600FFE7BDF80600AE
:1020E000039908800298808803998885029800885F
:1020F00003990885039842F60041C4F20101884221
:1021000020D0FFE7039843F20041C4F20101884266
:1021100018D0FFE7039844F20001C4F2010188429D
:1021200010D0FFE7039844F20041C4F20101884255
:1021300008D0FFE7039844F60001C4F20101884289
:1021400005D1FFE70298007A03990886FFE7039913
:102150000120888204B080BD41F21801C4F202015E
:10216000086844F204021043086040F60401C4F217
:102170000101086820F0C0000860086840F02000F5
:10218000086043F60801C4F2010141F64C50088092
:1021900043F60C01C4F20101088842F20C0210431C
:1021A00008807047FFE743F60000C4F20100008892
:1021B0008006002801D4FFE7F5E743F60400C4F2E7
:1021C00001000088C0B2704781B08DF80300FFE7BE
:1021D00043F60000C4F2010000880006002801D484
:1021E000FFE7F5E79DF8030043F60401C4F201019F
:1021F000088001B07047000080B582B00190009166
:102200000199009A42F64F40C0F6000000F022F813
:10221000FFE7FEE782B0019000914FF0FF3002B07F
:102220007047000080B582B000200190FEF7A2FD4B
:10223000FFF792FFFFE7FEF77DFEFEF793FBFEF749
:102240002FFBFFF7AFFF8DF803009DF80300FFF7AA
:10225000BBFFF0E70FB4054B10B503A9044A029881
:1022600000F0DAF810BC5DF814FB0000152200083D
:102270000000002002E008C8121F08C1002AFAD19D
:1022800070477047002001E001C1121F002AFBD1F6
:10229000704700002DE9FF5F82B00021DDE90430C6
:1022A000020DDDF840B0034318D044F61050A2F2FE
:1022B000FF3242431514119801281FD0A5EB0B00E3
:1022C000401C5FEA000A4FF000064E4FDFF83891DD
:1022D000B046504615D5CAF1000413E01198012408
:1022E0004AA3012801D16FEA0B010298119AC0E9B3
:1022F0000031C0E9024206B0BDE8F09FCBF100001A
:10230000DFE704460021404A491842EB0450CDE97A
:10231000001012E0E00707D032463B4640464946EF
:10232000FDF78AFF8046894632463B4610461946ED
:10233000FDF782FF06460F466410002CEAD1DDE966
:102340000401DDE90023BAF1000F06DAFDF774FF9E
:1023500042464B46FDF770FF05E0FEF7B7F94246EF
:102360004B46FEF7B3F904460E460022284BFEF713
:1023700035FA03D84FF0FF30014607E00022254B25
:1023800020463146FEF7FBF8FEF70FFA102409E06D
:10239000002C0ADB0A220023FEF72CF8039B3032C4
:1023A0001A55641E50EA0102F2D1641C039AC4F16A
:1023B00011031444119A012A03D0012208430DD1BC
:1023C0000AE0084304D000204FF0110B119072E78F
:1023D000A3EB0B056D1E0DE05B4504DD4FF0000225
:1023E00005F1010504E003DA4FF00002A5F1010553
:1023F000002AECD002981199C0E90231C0E90045E9
:1024000079E70000000014400000F03F30000000B9
:102410000000F0430000E03F2DE9FF4F95B09B46E0
:102420008946064600250FE2252877D10024274655
:10243000F84A0121059400E0044316F8013F203BCF
:1024400001FA03F01042F7D130782A2811D06FF04A
:102450002F033078A0F13002092A16D8059A44F0EB
:10246000020402EB820203EB42021044761C059048
:10247000EFE759F8042B0592002A03DA504244F49E
:102480000054059044F00204761C30782E2816D1B2
:1024900016F8010F44F004042A280DD06FF02F0223
:1024A0003078A0F13003092B09D807EB870302EB42
:1024B0004303C718761CF3E759F8047B761C307881
:1024C0006C280FD006DC4C2817D068280DD06A285D
:1024D00014D104E0742810D07A280FD10DE044F410
:1024E00000140AE044F4801401E044F440147278CB
:1024F000824202D104F58014761C761C307866285E
:102500000BD013DC582877D009DC002875D045287B
:10251000F6D04628F4D047281AD19DE118E0632868
:1025200035D0642879D0652812D195E1702873D010
:1025300008DC6728F1D069286FD06E280DD06F288D
:1025400006D1B5E073282CD0752875D0782874D0C2
:102550005A46179990476D1C75E1C4F30250022842
:1025600009D003280DD0D9F8001004280DD00D6033
:1025700009F1040967E1D9F80010EA17C1E900522E
:10258000F6E7D9F800100D80F2E70D70F0E719F8C2
:10259000041B8DF8001000208DF80100EA46012090
:1025A00003E059F804AB4FF0FF3061074FF0000132
:1025B00002D40DE008F101018846B9420FDA8045E6
:1025C000F8DB1AF808100029F4D108E008F101013D
:1025D00088468142FADB1AF808100029F6D10598DE
:1025E0005B46A0EB080721463846179A00F094FA9C
:1025F000284400EB080507E04DE029E10DE01AF85A
:10260000010B5A4617999047B8F10108F7D25B467B
:1026100021463846179A13E142E00A220092C4F399
:1026200002524FF0000A022A08D059F804CB032ABC
:102630004FEAEC710AD00DE029E02AE009F1070128
:1026400021F00702F2E802C1914609E00FFA8CFC82
:102650004FEAEC71042A03D14FFA8CFC4FEAEC717B
:10266000002907DA0A460021DCF1000C61EB0201C7
:102670002D2202E0220504D52B228DF80420012210
:1026800003E0E20701D02022F7E7904659E00A2153
:1026900002E010220DE010214FF0000A00910BE043
:1026A00010224FF0000A44F004040827009203E0CF
:1026B00008224FF0000A0092C4F30252022A05D009
:1026C00059F804CB0021032A08D009E009F10701D9
:1026D00021F00702F2E802C1914605E01FFA8CFCE6
:1026E000042A01D10CF0FF0C4FF00008220728D576
:1026F000702806D0009B83F0100353EA0A0305D02C
:102700000EE040228DF80420012208E05CEA01027C
:1027100006D030228DF804208DF805000222904664
:10272000009B83F0080353EA0A030AD15CEA010222
:1027300001D1620705D530228DF804204FF0010841
:102740007F1E582804D034A003900EA802900DE0FC
:1027500036A0F9E753466046009AFDF74BFE8446E3
:102760000398825C0298401E029002705CEA0100AD
:10277000F0D1029806A9081A00F1200A600702D5D4
:1027800024F4803400E00127574502DDA7EB0A005E
:1027900000E0002000EB0A01009005984144401A37
:1027A0000590E00306D45B462146179A059800F091
:1027B000B3F90544002706E001A85A46C05D179901
:1027C00090476D1C7F1C4745F6DBE0030CD55B464C
:1027D0002146179A059800F09FF9054404E030203F
:1027E0005A46179990476D1C0099481E0090002981
:1027F000F5DC08E0029802995A460078491C0291DB
:10280000179990476D1CBAF10001AAF1010AF1DC99
:1028100065E10000092801003031323334353637A4
:10282000383961626364656600000000303132331C
:1028300034353637383941424344454600000000BC
:1028400000F058F90544761C307800287FF4ECAD90
:1028500019B02846BDE8F08F620700D4062709F1B9
:10286000070222F0070CFCE80223E14603F00048CF
:102870005FEA080C02D00FF2702C0DE05FEA045CF6
:1028800002D50FF2682C07E05FEAC47C02D00FF299
:10289000602C01E0AFF2700C4FF0FF3823F00043E2
:1028A000CDF850C065280CD006DC452809D0462854
:1028B0001DD047283DD13DE0662818D067287ED13D
:1028C00038E00021112F01DB112000E0781CCDE958
:1028D000000106A90EA8FFF7DDFCDDE90F010E9A45
:1028E00003910021009207F1010A04914DE04FF09D
:1028F00000400097CDE9011006A90EA8FFF7CAFC19
:10290000DDE90F0203920E9B11990022DDF80CA065
:102910000093049211B9791C00EB010AB7EB0A008D
:1029200004D4C0F1FF3007F1010A0490AAEB0700BC
:10293000019044E0012F00DA01270021112F01DD71
:10294000112000E03846CDE9000106A90EA8FFF7E6
:10295000A1FCDDE90F010E9A039100210491009280
:10296000BA4621070CD40399514500DA8A46BAF1D8
:10297000010F05DD009AAAF10101515C302908D050
:10298000B84202DA10F1040F06DA0121CDE9011094
:1029900015E0AAF10101E9E7002805DC04990144EA
:1029A0000491AAEB000102E0411C514500DD8A467A
:1029B0000499401A401C01904FF0004002902007FB
:1029C00004D40198504501DBCDF8048000208DF837
:1029D0004F0002980DF14F07B0F1004F25D02B208A
:1029E0000E9002984FF0020800280CDA4042029044
:1029F0002D200E9007E00A210298FDF7E5FC30310A
:102A0000029007F8011DB8F10001A8F10108F2DCFD
:102A100002980028EFD1791E0E980870307800F0E7
:102A2000200040F0450007F8020D12A8C01B00F17D
:102A300007081498007800B1012000EB0A01019802
:102A400001EBE07105984144401A401E0590E003F7
:102A500006D45B462146179A059800F05DF80544B8
:102A60001498007818B15A46179990476D1CE003E6
:102A700024D55B462146179A059800F04DF8054489
:102A80001CE00498002807DBDDE90301884203DD30
:102A90000098405C179901E0179930205A469047FA
:102AA000049805F10105401C04900198401E019016
:102AB00004D12E205A46179990476D1CBAF1000197
:102AC000AAF1010ADDDC05E017F8010B5A46179957
:102AD00090476D1CB8F10001A8F10108F4DC5B46D9
:102AE0002146179A0598ABE62D0000002B00000048
:102AF000200000002DE9F041044600251E4617463F
:102B0000880404D405E039462020B0476D1C641EBB
:102B1000F9D52846BDE8F0812DE9F04104460025AD
:102B20001E469046C80301D5302700E020278804C0
:102B300004D505E041463846B0476D1C641EF9D502
:102B40002846BDE8F08173746D3332663130782DDC
:102B50007374647065726970682D6C69622D6D6143
:102B6000737465722F4C69627261726965732F5359
:102B7000544D3332463130785F5374645065726916
:102B800070685F4472697665722F7372632F737415
:102B90006D3332663130785F7263632E6300737415
:102BA0006D3332663130782D73746470657269707C
:102BB000682D6C69622D6D61737465722F4C69624A
:102BC0007261726965732F53544D333246313078D8
:102BD0005F5374645065726970685F4472697665AA
:102BE000722F7372632F73746D3332663130785F76
:102BF00074696D2E630073746D3332663130782DD5
:102C00007374647065726970682D6C69622D6D6192
:102C1000737465722F4C69627261726965732F53A8
:102C2000544D3332463130785F5374645065726965
:102C300070685F4472697665722F7372632F737464
:102C40006D3332663130785F6770696F2E63004193
:102C50007373657274696F6E206661696C65642058
:102C6000696E2066696C65202573206174206C692B
:102C70006E652025750A0073746D333266313078C5
:102C80002D7374647065726970682D6C69622D6D46
:102C900061737465722F4C69627261726965732F1A
:102CA00053544D3332463130785F537464506572FB
:102CB0006970685F4472697665722F7372632F6DF5
:102CC0006973632E63000000E82C000800000020F8
:102CD0001800000074220008002D000818000020D1
:102CE0002804000084220008000000000000003FCB
:102CF0008FC2F53C9A99993F010000000000000046
:04000005080000ED02
:00000001FF
