:020000040800F2
:1000000080080020A9020008B1020008B30200081D
:10001000B5020008B7020008B9020008000000009D
:10002000000000000000000000000000BB0200080B
:10003000BD02000800000000BF020008C102000865
:10004000C3020008C3020008C3020008C30200087C
:10005000C3020008C3020008C3020008C30200086C
:10006000C3020008C3020008C3020008C30200085C
:10007000C3020008C3020008C3020008C30200084C
:10008000C3020008C3020008C3020008C30200083C
:10009000C3020008C3020008C3020008C30200082C
:1000A000C3020008C3020008C3020008C30200081C
:1000B000C3020008C3020008C3020008C30200080C
:1000C000C3020008C3020008C3020008C3020008FC
:1000D000C3020008C3020008C3020008C3020008EC
:1000E000C3020008C3020008C302000800F002F8BF
:1000F00000F0B0F814A696E8000CB244B344DA4518
:1001000001D100F0A7F8BAE80F000FA696E830007A
:10011000A5EB040504EB0607AAEB0704A7F101070A
:100120004FEA15154FEA3414A4F10104AC4201D38F
:1001300000F090F813F0010F18BFFB1A43F0010311
:1001400000F001F8DBE71847EC5D00000C5E0000F2
:10015000103A24BF78C878C1FAD8520724BF30C8F3
:1001600030C144BF04680C60704700007047000055
:100170000023002400250026103A28BF78C1FBD8B0
:10018000520728BF30C148BF0B6070476E2900F08E
:100190008181702900F0B782662905F0F483652912
:1001A00005F0F183672905F0EE83612905F0ED8301
:1001B00003681B0A28BF41F08001692900F02E81E5
:1001C000642900F02B81752900F028816F2900F047
:1001D0004582782900F08382E92900F0DF81E42953
:1001E00000F0DC81F52900F0D981EF2900F042828E
:1001F000F82900F082820368DB0928BF41F0800102
:10020000632900F09F87732900F0A487E32900F099
:10021000AF87F32900F0B487002070471FB59DE831
:10022000030001F0CDFA00F080F801F0A3F804001B
:100230000020002104F0C0FA401C60600020002172
:1002400004F0A4FAE06000F0A3FF1FBD10B501F0B8
:1002500008F810BD01F060F81146FFF7DFFF02F06B
:1002600069FE01F027FA03B4FFF7F0FF03BC01F0C9
:100270006DFC00000B49D1F800C04A685CF8043BF3
:100280001068184442F8040B8C4528BFA1F1DC0C1F
:100290008A4228BFA1F1DC02C1F800C04A6020F008
:1002A00000407047EC00002009488047094800479B
:1002B000FEE7FEE7FEE7FEE7FEE7FEE7FEE7FEE716
:1002C000FEE7FEE704480549054A064B7047000073
:1002D000192A0008ED000008800200208008002094
:1002E00080040020800400200FB4044910B503AA44
:1002F000029800F0E3F810BC5DF814FB4801002000
:100300000B4910B5A1F17C020A4CC2E93712372122
:1003100006E000EB104342F82130074B00FB03409E
:100320000B1EA1F10101F4DC10BD0120E8E7000083
:100330008C000020E119D666CD0D01007047704792
:10034000704710B500F0AEFA006810BD10B5044655
:1003500000F0A8FA046010BD70B504468569006815
:10036000C10601D5302600E02026C00707D070BDA9
:10037000D4E9012130469047206A401C20626D1E5E
:10038000F6D570BD70B5044685690078C00707D101
:1003900070BDD4E9012120209047206A401C2062D2
:1003A0006D1EF6D570BD09684A0501D540B270478B
:1003B000C905FCD500B2704709684A0501D5C0B22D
:1003C0007047C905FCD580B2704770B50C4605462C
:1003D000012A05D02878800600D5EA69002302E0CA
:1003E000012305E05B1C934202D2E05C0028F9D1B6
:1003F000A869E618C01AA861286A18442862284625
:10040000FFF7AAFF04E0D5E9012114F8010B90479A
:10041000B442F8D32846FFF7B5FF70BD2DE9F0418F
:100420000646002410687529314616A510D0FFF73E
:10043000BAFF002802DA404213A507E031688A07B4
:1004400001D512A502E0490704D511A5012401E058
:10045000FFF7B2FF00210A2206F1240709E0B0FBF2
:10046000F2FCB0FBF2F302FB1C003030785418466B
:10047000491C0028F3D123462A463046BDE8F04106
:1004800000F059BA000000002D0000002B00000011
:100490002000000011680268006A530501D5087049
:1004A0000AE0D30501D5088006E0130603D5C2177C
:1004B000C1E9000200E0086001207047074B70B5F9
:1004C0000D467B4400F021FE0446284600F05CFE09
:1004D00010B14FF0FF3070BD204670BD3F2A0000C4
:1004E0002DE9FF5F15468A460446DFF8AC80F844E4
:1004F0000027D8E900103E46CDE9001010E03AF898
:1005000016106A4602A800F0DFFE411C07D02178D1
:10051000890603D5E269391891420DD80744761C43
:100520002078800602D5E069B84205DDAE42E6DB00
:100530003AF816000028E2D1A069C01BA06120464D
:10054000FFF70AFFD8E90010CDE90010002017E0FE
:100550003AF818106A4602A800F0B6FEB0F1FF3F64
:1005600081460BD000250DF1080B05E0D4E90121EF
:100570001BF8050090476D1C4D45F7D308F10100AD
:10058000B0428046E4DB206A384420622046FFF710
:10059000F9FEBDE8FF9F0000DA5500002DE9F041AB
:1005A0008046D21D22F007020025D2E90002F5297B
:1005B00015A614D0011E72F1000106DA0023D0EB5B
:1005C000030063EB020211A608E0D8F800108B07C5
:1005D00001D50FA602E0490701D50EA60125114657
:1005E000002408F1240704E000F060F930323A55A5
:1005F000641C50EA0102F7D12B46324621464046A0
:10060000BDE8F04100F097B9000000002D000000A7
:100610002B0000002000000030B4002100F1240471
:1006200008E002F00705D208303542EA4372DB08E1
:100630006554491C52EA0305F3D10468002310A253
:10064000250708D504F020040C4304D0C469012315
:100650000CA2641EC46130BC00F06DB910B5044634
:1006600021461068FFF7A8FE02462046BDE810406C
:100670000023D1E7D21D22F00701D1E90023CBE707
:100680000000000030000000F0B40D4601880905AC
:1006900002D5214C7C4402E01F4C7C440E340021E6
:1006A00000F1240608E002F00F071209E75D42EAB4
:1006B00003721B097754491C52EA0307F3D10278ED
:1006C0000023120704D5702D06D009B1022311347E
:1006D0002246F0BC00F02FB901231034F8E770B5C2
:1006E00004460D4621461068FFF766FE024629467D
:1006F0002046BDE870400023C6E7D21D22F0070364
:10070000D3E90023C0E70368126843F020030360C5
:100710000823C3610023B7E73C5400002DE9F05FD4
:10072000894604464FF0000ADFF874B1FB44C0F874
:1007300020A02046E1688847002874D0252806D0EC
:10074000D4E901219047206A401C2062F1E700268D
:100750005F462046E16888472028054607DB312DA3
:1007600005D2781910F8200C08B10643F1E7B0075C
:1007700001D526F00406C4F81CA00027C4F818A070
:100780002A2D09D0284603F071FC38B304EB870802
:10079000303DC8F8185019E059F8041B204604EB06
:1007A00087029161E1688847012F054618D1E06909
:1007B000002820DA26F020061DE0D8F8180000EB0B
:1007C000800005EB40003038C8F818002046E1688A
:1007D0008847054603F04AFC0028EED1012F0AD0D5
:1007E0002E2D08D12046E16888477F1C0546022F40
:1007F00046F02006C4DBA069002803DA404246F038
:100800000106A061F00701D026F010066C2D0BD078
:10081000682D09D04C2D39D06A2D35D0742D35D0A6
:100820007A2D33D016E038E0E1682F46204688471D
:10083000B842054609D16C2F26D04FF48060E1689C
:10084000064320468847054604E06C2F1AD04FF433
:10085000807006430DB3A5F14100192802D8203558
:1008600046F400664A462946204626604E46FFF773
:100870008DFC80B101280BD0F61D26F0070000F199
:10088000080956E74020E4E78020D8E70020D6E7B3
:1008900006F104094DE7284652E7206ABDE8F09FBB
:1008A000CC53000000487047F001002030B5B0F193
:1008B0000A0271F100034FEA900E4EEA817EB0EB1E
:1008C0000E0061EB91014FEA101E4EEA017E10EB23
:1008D0000E0041EB11114FEA102E4EEA016E10EBA3
:1008E0000E0041EB11214FEA104E4EEA014E10EB83
:1008F0000E0041EB1141401841F100014FEAD000D8
:1009000040EA41704FEAD1014FEA810444EA907411
:1009100010EB800544EB01046D1944EB0404521BF9
:10092000A3414FF0000348BF0A3200D530BD401C40
:1009300041F1000130BD2DE9F0470D469946924640
:10094000044600F124080168880604D5E06921F016
:100950001001216000E00120A84201DD471B00E0FA
:100960000027A1697A1902EB0900081AA061207812
:10097000C00602D42046FFF7EFFC002608E0D4E9C9
:1009800001211AF806009047206A401C761C20625C
:100990004E45F4DB2078C0060AD52046FFF7DCFC84
:1009A00006E0D4E9012130209047206A401C2062F3
:1009B000381EA7F10107F4DC07E0D4E9012118F89B
:1009C00005009047206A401C2062281EA5F1010501
:1009D000F3DC2046FFF7D6FC2078000602D5022083
:1009E000BDE8F0870120FBE72DE9FF4F0C461E46CE
:1009F0004FF0FF378BB0D2E90001DDF860800A903C
:100A00008A46C1F30A5505B93D46002108464FF014
:100A10000000BAF1000F00F4400005DA00EB80009E
:100A20004FF4400101EA50004FEA9059B9F1010F2B
:100A300000DDB9460A9850EA4A000ED044F610503C
:100A4000A5F2FF3545432F14B8F1000F1ED07542B3
:100A5000291E1EDDC9F100021CE0B8F1010F4FF0A4
:100A6000000001D0302103E0F24305E02154401C96
:100A7000B042FBDB30460022002121540B99C1F823
:100A80000880C1E900200FB0BDE8F08FBD1B6D1CD0
:100A9000DEE74A4600DA694206A800F0D7FC06AB5A
:100AA00093E8070003AB83E8070050460A9902F079
:100AB0000BFB8DE80700A0F500501F38009003984D
:100AC000002D0ADD42F21F014A460844002303A913
:100AD0000390684602F074FD09E0A0F500504A4614
:100AE0001F38002303A90390684602F07EFD8DE8BD
:100AF00007000004000C03D04FF0FF30410800E075
:100B00001046B8F1000F03D00022009215461EE0F7
:100B1000751E05D4FFF7CAFE303262556D1EF9D539
:100B2000B3460122084302D000227F1C04E0207853
:100B3000302801D100227F1E002A099784D01DE0B1
:100B4000112D07DAFFF7B2FE303262556D1C50EA04
:100B50000102F5D1084302D00098C8B10EE000218F
:100B6000681E05E0235C625C63542254401E491CED
:100B70008142F7DBAB46A81B401E0990002004F819
:100B80000B000B98099AC0F80880C0E9002B7AE79F
:100B900011264FF0000857E72DE9F04F884604462C
:100BA000D21D22F0070191B0D1E90001CDE90A017F
:100BB00002F052FE02460B98C00F01D02D2007E034
:100BC0002068810701D52B2002E0202101EAC00026
:100BD000032A099001D0072A05DB03464146204637
:100BE00000F0F4FB0BE12078800601D5E06900E01D
:100BF0000620B8F1650F814606D0B8F1660F18D00F
:100C0000B8F1670F70D131E00020B9F1110F0090F9
:100C100001DB112301E009F101030AAA01A90CA8D3
:100C2000FFF7E2FEDDE90C70002609F101058346BD
:100C300047E001204B4600904FF000470AAA01A967
:100C40000CA8FFF7D1FEDDE90DB00C995D4600263A
:100C500010B909F101000D18B9EB050003D4C0F17A
:100C6000FF3609F10105A5EB09002BE0B9F1010FF1
:100C700001DA4FF001090020B9F1110F0090484648
:100C800001DD112300E003460AAA01A90CA8FFF721
:100C9000ABFEDDE90C704D46002683462078000748
:100CA0000AD4AB4500DA5D4601A8012D04DD4119E7
:100CB00011F8011C302907D04F4502DA17F1040F53
:100CC00004DA012082460FE06D1EEEE7002F02DC01
:100CD000ED1B3E4403E0781CA84200DD7D1CB81BE0
:100CE00000F1010A4FF000472078000703D4AA451D
:100CF00001DB4FF0FF3A0021B7F1004F0DF143083F
:100D00008DF8431024D002202B23002F01DA7F42DC
:100D10002D230A21021EA0F1010000DC5FB197FB28
:100D2000F1FC97FBF1F201FB1C7C17460CF1300C37
:100D300008F801CDEEE7A8F101000370218809054C
:100D400001D5452100E06521A0F1010800F8011C52
:100D500009980FA9A1EB0807FF1D00B10120411957
:100D600001EBEA70A1693844081A401EA06120789E
:100D7000C00602D42046FFF7EFFA099828B1D4E95B
:100D800001219047206A401C20622078C00622D5AD
:100D90002046FFF7E1FA1EE0002E04DBB34502DD3A
:100DA00001A8805D00E03020D4E901219047206A4D
:100DB000401C2062761CAAF101005FEA000A0AD1F9
:100DC00000F0D8FAC0680168405CD4E9012190477E
:100DD000206A401C2062281EA5F10105DCDC07E02A
:100DE000D4E9012118F8010B9047206A401C2062C9
:100DF000381EA7F10107F3DC2046FFF7C3FA0320F2
:100E000011B041E62DE9F04F04460D46D21D22F007
:100E1000070089B0D0E900974846394602F01CFD2A
:100E20000246F80F01D02D2307E02068810701D585
:100E30002B2302E0202101EAC0038DF820300BB102
:100E4000012000E00020032A824601D0072A04DBAB
:100E50002946204600F0BAFA3FE12078800601D406
:100E60000D2500E0E569C7F30A560D2D49DA00218A
:100E70004FEA175B08464FF00000002F00F44000D7
:100E800007DA00EB80004FF4400100EBD07001EA7C
:100E900060008115012901DD4FF0FF3100224FEA8A
:100EA000850CBCF1180F06D31346ACF118004FF0B7
:100EB0008052C24003E04FF4801323FA0CF30CF18C
:100EC0000C0CBCF1200F04D3ACF1200C09FA0CF08F
:100ED00001E007FA0CF000294FF0004801DD18B9D5
:100EE0000FE00ED140450CD319EB02095F4121B947
:100EF000404502D19F4329EA0209BBEB175F00D0AE
:100F0000761C2088000502D57B48784402E07A48A8
:100F10007844193808AA302302F80A30037C0AF111
:100F20000101002E0AF1020A53546A4602DC4FF016
:100F3000300101E04FF031014FF001088DF8001051
:100F400002D0A6F2FF3603E059EA470100D06B4E0B
:100F5000002D02DC2178090704D54FF002082E216C
:100F60008DF80110C44600210BE0C7F303433F0195
:100F7000C35C491C6D1E02F80830052908F1010800
:100F800001DA002DF1DC00210CE000EB1973491CA3
:100F90001B786D1E082902F808304FEA091908F17C
:100FA000010801DA002DF0DC21688B0602D516E07D
:100FB000A8F10108E04505DD02EB080313F8013C48
:100FC000302BF5D0B8F1000F09DD02EB080313F860
:100FD000013C2E2B03D1090701D4A8F10108002DF3
:100FE00005DD3E2102F808106D1E08F10108407C65
:100FF000002E02F8080008F1010804DA2D207642DC
:1010000002F8080002E02B2002F808000A214FF441
:101010007A70864208F101080BDB96FBF0F330335F
:1010200002F8083096FBF0F308F1010800FB1366A4
:1010300001E0642E0CDB642096FBF0F3303302F801
:10104000083096FBF0F308F1010800FB136601E09D
:101050000A2E06DB96FBF1F0303002F8080008F1AA
:10106000010896FBF1F001FB1060303002F8080037
:10107000A16908F1010808EB050202EB0A00081A51
:10108000A0612078C00602D42046FFF765F9216AE6
:1010900008AE01EB0A00206204E0D4E9012116F851
:1010A000010B9047BAF1010AF7D22078C00602D5A9
:1010B0002046FFF751F96E4609E016F8010B3E286D
:1010C0000FD0D4E901219047206A401C2062B8F17A
:1010D0000108F2D22046FFF755F909B00320BDE818
:1010E000F08F206A2844206203E0D4E901213020F7
:1010F00090476D1EEBD3F8E75D4D000002FCFFFF4B
:1011000001694A1C02610878704700B58FB0CDE9CB
:1011100001310021059105497944CDE903101146BB
:101120006846FFF7FBFA0FB000BD0000E5FFFFFFC8
:1011300010B5436913B1AFF3008001E0FFF745F943
:10114000012010BD127800F124010A7000224A70BB
:101150000122EDE711684FF0FF32E9E710B543696E
:1011600013B1AFF3008001E0FFF7BAF9012010BD21
:10117000128800F1240182840022C2840122EDE75A
:1011800011684FF0FF32E9E7007B00F08000704704
:1011900010B54248542100F09DFA4148542100F016
:1011A00099FA4048542100F095FA3F493B483C4A9F
:1011B0003F4B08603D490A603A491960531C03657A
:1011C000481C1065012008653B48344A39A1784421
:1011D00000F0D2F920B9384878440A3800F073FAA0
:1011E00037482F4A35A1784400F0C6F920B9344871
:1011F00078440A3800F067FA32482A4A2FA1784426
:1012000000F0BAF920B92F4878440A3800F05BFAA8
:1012100040232248DC000021224600F089F920B159
:1012200025487844543800F04EFA1D4822464023A1
:10123000002100F07DF920B121487844543800F0B5
:1012400042FA184822461023002100F071F90028C4
:1012500006D01C487844BDE81040563800F033BA38
:1012600010BD104870B5006D20F001040B4800F06F
:10127000FBF90B4800F0F8F90A4800F0F5F909E02D
:10128000206D20F00105204600F0EEF9204600F028
:1012900075F82C46002CF3D170BD0000F40000203E
:1012A000480100209C0100200000002004000020D4
:1012B0000800002072000000AC4A00007700000027
:1012C000984A0000844A00002DE9F04116460C4679
:1012D000054600F047F8036893F80101012807D09C
:1012E000FF2C12D8185D80B101202C70BDE8F08170
:1012F000D3F807013246214603F20713C7182846E0
:10130000BC46BDE8F041002360474FF0FF30EDE7F9
:1013100000487047F00100207546FFF7F9FFAE4620
:1013200005006946534620F00700854618B020B5F1
:10133000FEF7C8FFBDE820404FF000064FF0000761
:101340004FF000084FF0000BAC46ACE8C009ACE829
:10135000C009ACE8C009ACE8C00921F007018D461E
:101360007047000010B500F005F8001D10BD00BF6B
:1013700049340000004870471002002070B5044650
:10138000051F00F001FA0068002C14BF446870BD0E
:10139000002C18BFAC423CBF20466468F8D30168FB
:1013A0000A18AA4218BF456003D12A6805461144AD
:1013B000016028684119A1421CBF6C6070BD616862
:1013C000696021680844286070BD00002DE9F04183
:1013D0001F46044603260168072A01F4006004DB67
:1013E00008B116A505E016A503E008B115A500E0B3
:1013F00015A521F010002060A069C01EA0610FB1EA
:10140000401EA0612046FEF7A7FF4FB1D4E901219D
:1014100038469047206A401C2062C01C206206E0CB
:10142000206AFAE7D4E9012115F8010B9047761EEE
:10143000F8D22046FEF7A6FFBDE8F0814E414E00EF
:101440006E616E00494E4600696E66002DE9F047F8
:10145000814616468AB0354878440DC88DE80D009F
:1014600032487844801C03AC0DC884E80D0041F676
:101470009B300844372190FBF1F290FBF1F5A5F188
:10148000800501FB12041B3C02D56442012000E0F0
:101490000020DFF898A080460027FA44AAF1BE0A8F
:1014A0000EE0E0070AD03246684607EB4701012309
:1014B0000AEB810102F099F88DE8070064107F1CA7
:1014C000002CEED1194F7F44AE3F19E0E80715D04C
:1014D00007EB04100DF1180A90E80E008AE80E00E0
:1014E000C068F04201D1981908903246012306A93C
:1014F00003A802F07AF803AB83E807006D10641CC0
:10150000002DE3D14FF0010332466946B8F1000FD8
:1015100003A802D002F054F801E002F066F8C9E92D
:101520000001C9F808200AB0BDE8F087AC48000007
:1015300070B5C468A50713D0650211D4B2F5807FD9
:1015400009D0B2F5007F06D0B2F5806F08D1012333
:1015500000F1240106E05D1E6FF07F46B54201D325
:10156000012070BD0161C361416024F470611143C9
:10157000C160002070BD00002DE9F0410C46164608
:10158000070047D0104600F06FF82078611C6128F2
:101590000AD0722802D077283CD102E0012500242D
:1015A00005E00225042402E0082448F2020511F8AF
:1015B000010B2B2806D0622809D011F8010C7428E1
:1015C0000AD00BE045F0030544F00204EFE745F0D4
:1015D000040544F00104EAE744F0100438462146CB
:1015E00000F09FF8411C15D00021316171604FF46B
:1015F0000071F560F1617061200704D53046022268
:10160000002100F03BF9306D40F0010030653046BC
:10161000BDE8F0810020FBE72DE9F0410D460646CC
:10162000104C206DC10704D0410804D020F0010403
:10163000F7E722460EE0542000F0F1F807000ED044
:10164000206D47F00101084354212065384600F021
:1016500041F83A4629463046BDE8F0418CE7002083
:10166000D6E70000F40000202DE9F04704464FF0D3
:10167000FF380026C568D4E90497A80718D020468B
:1016800000F0B8F9384600F056F8002800DA46466F
:10169000280502D54846FFF771FE4C21204600F090
:1016A00019F8206D20F0010020653046BDE8F08774
:1016B0004046FBE710B50446AFF300802046BDE886
:1016C0001040FEF7D0BD10B500F0DEF9BDE81040C7
:1016D00000F0D4B94FF0000200B513469446964688
:1016E000203922BFA0E80C50A0E80C50B1F1200135
:1016F000BFF4F7AF090728BFA0E80C5048BF0CC0E3
:101700005DF804EB890028BF40F8042B08BF704740
:1017100048BF20F8022B11F0804F18BF00F8012BB2
:1017200070470EB5CDE9000100F09AFA02906946C3
:101730000120ABBE0EBD08B5694600900220ABBECD
:1017400008BD1FB58DE8070069460520ABBE04B093
:1017500010BD1FB58DE80F0069460620ABBEF6E749
:1017600008B5694600900920ABBE08BD1CB5CDE99F
:10177000000169460A20ABBE1CBD704708B569462A
:1017800000900C20ABBE08BD00487047F801002057
:10179000704770477047704738B504460A460020C6
:1017A0006946AFF30080002808BF38BD02460099A3
:1017B000204600F0D8F9012038BD012000F07EB9A4
:1017C000F8B5AFF30080054600200C460C2000BFA2
:1017D0000646A819A0420DD9324669460020AFF34B
:1017E0000080070008BF00F069F90098A04218BF08
:1017F0000546C419FFF7C8FF05600746F01D20F035
:1018000007004619284600F0A8F9B44208BFF8BD01
:10181000A21B31463868BDE8F84000F0A4B970B5A5
:101820000646FFF7B1FF056806F10B0020F007043C
:10183000B4429CBF002070BD2B466A68BAB11068E4
:10184000A04210D304F1080188423CBF50685860A0
:1018500007D35168101941601168091B0160586075
:101860001460101D70BD13465268002AE7D121464E
:101870002846FFF791FF0028DED170BD2DE9F04129
:10188000044616460D464769007B80072ED0384631
:10189000FFF766FF50BB3EB3012E02D0022E25D1CA
:1018A00004E0204600F079F905441DE03846FFF7D2
:1018B00065FFE168002841F01001E16005DA20468B
:1018C00000F058F80120BDE8F081C9030BD562682B
:1018D000E16A914200D81146A26911442269891A2D
:1018E000814200DD08460544002D01DA0220EAE7C6
:1018F000E16A6068E268814206D29103E06203D542
:1019000022F4003141F01002A6690027AE4213DC38
:10191000E16A814201D90B4600E0034603EB060C65
:101920002369ACEB030CAC4506DD814201D98C4642
:1019300000E084469C4505D1A760276042F0200066
:10194000A5620DE0AD1BE669AE1B8142A66000D921
:101950000846C01A281A20605819606022F020003A
:1019600003490840E060002084F84870ABE70000BD
:10197000BFCFD7FFC16821F4001141F08001C160E1
:1019800000218160016070472DE9F74F15460C4634
:101990004FF0FF3B3848D768D2F814A0074209D06F
:1019A0005046A969FFF7E2FE002819DB3248C04320
:1019B0000740EF604FF000496FF000484C4501D3FD
:1019C000464600E0264600993B4650463246FFF721
:1019D000B8FEA96920F00042B21A1144A96128B1E9
:1019E0002846FFF7C7FF5846BDE8FE8FA41BE5D188
:1019F0000020F9E770B504460569C06A616888424D
:101A000000D80846E16821F42011E160C90312D52D
:101A1000A84208D02246411B2846FFF7B5FF10B167
:101A20004FF0FF3070BD0020E562C4E90150E0686E
:101A300020F48030E060002070BD10B50446C0681E
:101A400020F02000E060A16AA06988420DD0204605
:101A5000FFF7D0FFE06820F4405040F01000E06055
:101A6000A06AA0612069E062606044F24001E06821
:101A70008843E06010BD000010000200002801D083
:101A800000F064B87047000010B5014602A000F0F5
:101A9000A5F8012010BD0000534947525452454457
:101AA0003A2052656469726563743A2063616E27F7
:101AB00074206F70656E3A200000000010B500F0D1
:101AC000A7F8BDE81040FFF7D9BF00004FF0013C78
:101AD00050F8042B51F8043B9A4221D1A2EB0C039D
:101AE000934313EACC1317D150F8042B51F8043B5D
:101AF0009A4215D1A2EB0C03934313EACC130BD1FA
:101B000050F8042B51F8043B9A4209D1A2EB0C0384
:101B1000934313EACC13DBD04FF00000704700BFB3
:101B2000D01A01BAB1FA81F101F0180122FA01F0DC
:101B3000CB40DBB2C0B2C01AC1F120012CFA01F3D4
:101B4000D11A914311EAC311E6D170470149182017
:101B5000ABBEFEE726000200704700210160416035
:101B600070470C207047034640688C46002818BF19
:101B700088423CBF03464068F8D31868184488423E
:101B800007D00CF1030020F00700001D411A521A83
:101B90000146081D0A60FFF7F1BB10B50146C26897
:101BA000900703D0900607D5886A0AE0FEF77AFE10
:101BB00001210160881E10BD8B69486818440B69BB
:101BC000C01A91F848301BB191F84910401A10BD65
:101BD0001103FCD50028FADD401E10BD70B5054686
:101BE0000C460A2000E06D1C00F059F835B1287849
:101BF0000028F8D102E0641C00F051F814B12078FC
:101C00000028F8D1BDE870400A2000F048B8000074
:101C100010B5012805D0002103A0FFF7DFFF012048
:101C200010BD09A1F8E7000053494752544D454DF6
:101C30003A204F7574206F662068656170206D656D
:101C40006D6F7279000000003A2048656170206D68
:101C5000656D6F727920636F727275707465640060
:101C600010B5431C02E010F8011B71B18107FAD1D5
:101C70004FF0013202C88C1A8C4314EAC211F9D019
:101C8000C01A0A0603D0C01E10BDC01A10BD0A0437
:101C900001D0801E10BD0902FCD0401E10BD08B549
:101CA00069468DF800000320ABBE08BD40F2542108
:101CB000C2F200010020088040F25621C2F2000169
:101CC000088040F25821C2F200014FF4757008807C
:101CD0007047000080B586B040F25020C2F200008C
:101CE0000090017801310170007803F0B5FB4CF6EB
:101CF000CD41C3F6CC5103F043FC03F0D1F902F01F
:101D00001BFC002201920023C4F2490302F0D0FF21
:101D100002F074FF0146009801F5757140F25822F7
:101D2000C2F2000205921180007803F095FB4CF698
:101D3000CD41C3F64C5103F023FC03F0B1F902F09E
:101D4000FBFB019A0023C4F2590302F0B1FF02F039
:101D500055FF0146009840F25422C2F2000202925E
:101D60001180007803F078FB4CF28F21C3F6F54127
:101D700003F006FC03F094F902F0D2FA019A002372
:101D8000C4F2540302F094FF02F038FF40F25621EF
:101D9000C2F2000103910880FEF76CFA029946F244
:101DA0006762C6F26662049280FB0223DA1002EBDD
:101DB000D37202EB8202A0EB82000A8810440A3838
:101DC0000880FEF757FA0399049A80FB0223DA1081
:101DD00002EBD37202EB8202A0EB82000A8810446D
:101DE0000A380880FEF746FA049A059980FB022318
:101DF000DA1002EBD37202EB8202A0EB82000A88B7
:101E000010440A38088006B080BD000080B5A8B034
:101E100040F25420C2F20000B0F9000003F01CFBB5
:101E20004FF08741029103F005FA279040F25620C7
:101E3000C2F20000B0F9000003F00EFB029903F0BB
:101E4000F9F9269040F25820C2F20000B0F90000E3
:101E500003F002FB029903F0EDF9259025992698ED
:101E600002F00CF90021C4F234311F9103F088FB19
:101E700040F6DB71C4F24901209103F0DBF92490B4
:101E800027980590269803902599084603F078FB3B
:101E900003990490084603F073FB049903F02CF9AE
:101EA00002F05EFC0146059880F0004002F0E6F882
:101EB0001F9903F065FB209903F0BCF9239040F2D1
:101EC0007820C2F200001A900068069040F25C2070
:101ED000C2F2000000684FF07A51099103F050FB04
:101EE000069903F009F9079024984DF20A71C3F698
:101EF000A3410B9103F044FB0146079808914EF271
:101F00004811C3F67A710C9103F03AFB089903F07B
:101F1000F3F809991A9A106040F27420C2F2000096
:101F20001C9000680A9040F26020C2F20000006835
:101F300003F026FB0A9903F0DFF80B990D90239824
:101F400003F01EFB0C9902460D980E9203F018FB4D
:101F50000E9903F0D1F8209902461C98026040F2D5
:101F60006822C2F20002139212681192006803F014
:101F700007FB1F9903F05EF902F020FA2099024650
:101F80001C98109240F27022C2F20002199212685C
:101F90000F92006803F0F4FA1F9903F04BF902F076
:101FA0001BFB01460F9803F0EBFA109902461198BB
:101FB000129203F0E5FA129903F09EF8139A209911
:101FC00003461A98229312681492006803F0D8FA14
:101FD0001F9903F02FF902F0FFFA0146149803F05D
:101FE000CFFA209902461C981792006803F0C8FAAD
:101FF0001F9903F01FF902F0EFFA209902461A9890
:10200000169240F26C22C2F2000212681592006829
:1020100003F0B6FA1F9903F00DF902F0CFF901466B
:10202000159803F0ADFA169902461798189203F026
:10203000A7FA189903F060F8199A209903461A989C
:102040001E9312681B92006803F09AFA1F9903F01E
:10205000F1F802F0C1FA01461B9803F091FA2099B9
:1020600002461C981D92006803F08AFA1F9903F03B
:10207000E1F802F0A3F901461D9803F081FA014648
:102080001E9803F00BFC21902198229980F00040CB
:1020900001F0F4FF1F9903F073FA209903F0CAF8D6
:1020A000014640F27C20C2F200000160006800217D
:1020B00003F09FF870B9FFE740F27C20C2F2000005
:1020C000019000680021C4F2B43103F015F80199C1
:1020D0000860FFE728B080BD82B00190002000902A
:1020E000FFE7009801994FF4FA525143884206D213
:1020F000FFE700BFFFE7009801300090F1E702B072
:102100007047000080B588B00790069100200590C8
:1021100004900390029001900090079840F600010F
:10212000C4F20101884230D0FFE7079840F6004131
:10213000C4F20101884228D0FFE7079841F200016C
:10214000C4F20101884220D0FFE7079841F2004124
:10215000C4F20101884218D0FFE7079841F6000158
:10216000C4F20101884210D0FFE7079841F6004110
:10217000C4F20101884208D0FFE7079842F200014B
:10218000C4F20101884201D1FFE707E045F688600B
:10219000C0F60000B12100F0A7FEFFE70698C07866
:1021A00018B3FFE70698C07804281ED0FFE706980A
:1021B000C078282819D0FFE70698C078482814D09E
:1021C000FFE70698C07814280FD0FFE70698C0787C
:1021D00010280AD0FFE70698C0781C2805D0FFE732
:1021E0000698C078182801D1FFE707E045F6886017
:1021F000C0F60000B22100F077FEFFE7002028B90A
:10220000FFE70698008808B1FFE707E045F6886019
:10221000C0F60000B32100F067FEFFE70698C07823
:1022200000F00F0005900698C078C00600281ED563
:10223000FFE70698807801280AD0FFE706988078A3
:10224000022805D0FFE706988078032801D1FFE730
:1022500007E045F68860C0F60000BA2100F044FEB1
:10226000FFE706988178059808430590FFE70698F0
:10227000007800284BD0FFE7079800680190002005
:102280000390FFE7039807283DD8FFE70399012053
:1022900088400290069800880299084004900498AB
:1022A000029988422AD1FFE70398800002900299A0
:1022B0000F2088400090009901988843019005986C
:1022C000029900FA01F10198084301900698C0783C
:1022D000282806D1FFE70399012088400799486123
:1022E0000BE00698C078482806D1FFE70399012043
:1022F000884007990861FFE7FFE7FFE7FFE70398DA
:1023000001300390BEE7019807990860FFE706983F
:102310000088B0F5807F50DBFFE7079840680190A8
:1023200000200390FFE70398072842D8FFE70398AF
:1023300000F1080101208840029006980088029967
:10234000084004900498029988422DD1FFE7039831
:102350008000029002990F20884000900099019817
:10236000884301900598029900FA01F10198084309
:1023700001900698C078282808D1FFE7039800F15B
:1023800008010120884007994861FFE70698C07856
:10239000482808D1FFE7039800F108010120884090
:1023A00007990861FFE7FFE7FFE703980130039013
:1023B000B9E7019807994860FFE708B080BD0000C1
:1023C00040F25C21C2F200010020086040F260216E
:1023D000C2F20001086040F26421C2F2000108600C
:1023E0007047000040F26821C2F200010020C4F2F0
:1023F000F010086040F26C21C2F200010020C4F22B
:10240000A000086040F27021C2F200010020CCF26E
:10241000202008607047000080B582B001908DF8E0
:10242000031001980221CFF6C071084204D1FFE7E2
:10243000019808B1FFE708E045F63560C0F60000F6
:1024400040F24A4100F050FDFFE79DF8030028B13B
:10245000FFE79DF80300012801D1FFE708E045F6FA
:102460003560C0F6000040F24B4100F03DFDFFE753
:102470009DF8030048B1FFE7019A41F21801C4F248
:10248000020108681043086008E0019A41F218014F
:10249000C4F20201086890430860FFE702B080BD03
:1024A00086B005900020049003900290019041F2C4
:1024B0000400C4F20200006800F00C0004900498CC
:1024C000009040B1FFE7009804280BD0FFE7009888
:1024D00008280ED047E0059941F20020C0F27A00AA
:1024E000086047E0059941F20020C0F27A000860D8
:1024F00040E041F20400C4F20200016801F47011EE
:102500000391006800F4803002900399022000EBF0
:1025100091400390029848B9FFE7039840F60011F4
:10252000C0F23D014843059908601BE041F20400F8
:10253000C4F2020000688003002809D5FFE7039871
:1025400040F60011C0F23D0148430599086008E0DB
:10255000039841F20021C0F27A01484305990860CE
:10256000FFE7FFE706E0059941F20020C0F27A009C
:102570000860FFE741F20400C4F20200016801F0C4
:10258000F0010491049909090491049A45F6245133
:10259000C0F600018A5C0192059B1A68DDF804C050
:1025A00022FA0CF25A60026802F4E0620492049A81
:1025B000120A0492049A8A5C0192059B5A68DDF81B
:1025C00004C022FA0CF29A60026802F4605204928B
:1025D000049AD20A0492049A895C0191059A51687E
:1025E000019BD940D160006800F4404004900498F9
:1025F000800B0490049945F62050C0F60000405C22
:1026000001900599C868019AB0FBF2F0086106B024
:102610007047000080B588B040F25120C2F200003F
:102620000090017801310170007802F015FF45F645
:102630002941C3F68F5102F0A3FF01F0CDFF4FF007
:102640007F5102F09DFF0146009840F25C22C2F2E9
:10265000000201921160007802F0FEFE4CF6CD41BE
:10266000C3F64C5102F08CFF01F0A8FE49F69A1116
:10267000C3F6997102F084FF0146009840F260228F
:10268000C2F2000202921160007802F0E5FE4CF204
:102690008F21C3F6F54102F073FF01F09DFF4CF668
:1026A000CD41C3F64C7102F06BFF40F26421C2F2DF
:1026B000000107910860FDF7DDFD024648F21F505A
:1026C000C5F2EB10049082FB0001481100EBD170C1
:1026D0006421039100FB112002F0BEFE4DF20A714D
:1026E000C3F62341059102F04BFF4FF03F410691A5
:1026F00002F002FD01460198006802F0FDFC01991C
:102700000860FDF7B7FD03990246049882FB0003B9
:10271000581100EBD37000FB112002F09DFE0599CB
:1027200002F02EFF069902F0E7FC014602980068CD
:1027300002F0E2FC02990860FDF79CFD0399024655
:10274000049882FB0003581100EBD37000FB1120AA
:1027500002F082FE059902F013FF069902F0CCFC0C
:1027600001460798006802F0C7FC0799086008B0A6
:1027700080BD000080B58AB040F25220C2F2000055
:102780000190017801310170007802F065FE4DF290
:102790000A71C3F6A34102F0F3FE01F01DFF002110
:1027A000C4F2201102F0ECFE0021C4F2F01102F09C
:1027B000A3FC0146019840F26822C2F20002039293
:1027C0001160007802F048FE4CF28F21C3F675418B
:1027D00002F0D6FE01F0F2FD4FF0824102F0D0FE91
:1027E0000021C4F2A001029102F086FC014601988A
:1027F00040F26C22C2F2000204921160007802F0F2
:102800002BFE4DF20A71C3F6234102F0B9FE01F02E
:10281000E3FE029902F0B4FE0021CCF2202102F086
:102820006BFC40F27021C2F2000109910860FDF7D3
:1028300021FD024648F21F50C5F2EB10069082FBC4
:102840000001481100EBD1706421059100FB1120BB
:1028500002F002FE4CF6CD41C3F6CC51079102F0D6
:102860008FFE0021CCF2A001089102F045FC014648
:102870000398006802F040FC03990860FDF7FAFC39
:1028800005990246069882FB0003581100EBD370AD
:1028900000FB112002F0E0FD079902F071FE08999B
:1028A00002F02AFC01460498006802F025FC049915
:1028B0000860FDF7DFFC05990246069882FB0003DD
:1028C000581100EBD37000FB112002F0C5FD0799F1
:1028D00002F056FE089902F00FFC014609980068C4
:1028E00002F00AFC099908600AB080BD80B500F0CA
:1028F00001F880BD84B000200390029041F20001F5
:10290000C4F20201086840F480300860FFE741F239
:102910000000C4F20200006800F400300290039846
:1029200001300390FFE702990020019039B9FFE7D9
:102930000398B0F5A06018BF01200190FFE701984F
:10294000C0070028E3D1FFE741F20000C4F2020013
:1029500000688003002803D5FFE70120029002E011
:1029600000200290FFE70298012851D1FFE742F2D0
:102970000001C4F20201086840F010000860086815
:1029800020F007000860086840F00200086041F28B
:102990000401C4F202010091086808600868086038
:1029A000086840F480600860086820F47C100860C3
:1029B000086840F4E810086041F20001C4F2020126
:1029C000086840F080700860FFE741F20000C4F240
:1029D000020000688001002801D4FFE7F5E741F21A
:1029E0000401C4F20201086820F0030008600868CE
:1029F00040F002000860FFE741F20400C4F2020068
:102A0000006800F00C00082801D0FFE7F4E700E0C0
:102A1000FFE704B07047000080B541F20002C4F245
:102A20000202106840F00100106041F20401C4F29B
:102A3000020108680023CFF6FF0318400860106801
:102A40004FF6FF73CFF6F66318401060106820F45D
:102A500080201060086820F4FE00086041F2080140
:102A6000C4F202014FF41F000860FFF73FFF4EF66B
:102A70000851CEF200014FF00060086080BD0000F8
:102A800080B58AB044F2040001210491FFF7C4FC30
:102A90004FF40070ADF8240018208DF827000320B3
:102AA0008DF8260040F60000C4F20100019009A94B
:102AB0000291FFF727FB019802994FF48062ADF86D
:102AC000242004228DF82720FFF71CFB4FF416501A
:102AD00005900020ADF81800ADF81A00ADF81C0004
:102AE0000C21ADF81E10ADF8200043F60000C4F232
:102AF0000100039005A900F063F80398049900F021
:102B000003F80AB080BD000080B582B001908DF856
:102B10000310019843F60001C4F20101884220D05D
:102B2000FFE7019844F20041C4F20001884218D046
:102B3000FFE7019844F60001C4F20001884210D07A
:102B4000FFE7019844F60041C4F20001884208D032
:102B5000FFE7019845F20001C4F20001884201D16B
:102B6000FFE708E045F6DC60C0F6000040F26111C6
:102B700000F0BAF9FFE79DF8030028B1FFE79DF8E0
:102B80000300012801D1FFE708E045F6DC60C0F64C
:102B900000004FF4B17100F0A7F9FFE79DF80300C2
:102BA00030B1FFE70199888940F40050888105E041
:102BB0000199888920F400508881FFE702B080BD28
:102BC00080B58CB00B900A91002009900890079076
:102BD000069005900B9843F60001C4F2010188426B
:102BE00020D0FFE70B9844F20041C4F20001884274
:102BF00018D0FFE70B9844F60001C4F200018842A8
:102C000010D0FFE70B9844F60041C4F2000188425F
:102C100008D0FFE70B9845F20001C4F2000188429A
:102C200001D1FFE707E045F6DC60C0F60000B72100
:102C300000F05AF9FFE70A98006850B1FFE70A98D8
:102C400000684AF62021C0F24401884201D8FFE71B
:102C500007E045F6DC60C0F60000B82100F044F95A
:102C6000FFE70A98808830B1FFE70A988088B0F5BE
:102C7000805F01D1FFE707E045F6DC60C0F60000A9
:102C8000B92100F031F9FFE70A98C08890B1FFE759
:102C90000A98C088B0F5805F0CD0FFE70A98C0881A
:102CA000B0F5005F06D0FFE70A98C088B0F5405F36
:102CB00001D1FFE707E045F6DC60C0F60000BA216D
:102CC00000F012F9FFE70A98008960B1FFE70A985F
:102CD0000089B0F5806F06D0FFE70A980089B0F54B
:102CE000C06F01D1FFE707E045F6DC60C0F60000E9
:102CF000BB2100F0F9F8FFE70A9840896FF00C015A
:102D0000084205D1FFE70A98408908B1FFE707E0CC
:102D100045F6DC60C0F60000BC2100F0E5F8FFE7F6
:102D20000A98808990B1FFE70A988089B0F5807F82
:102D30000CD0FFE70A988089B0F5007F06D0FFE746
:102D40000A988089B0F5407F01D1FFE707E045F69A
:102D5000DC60C0F60000BD2100F0C6F8FFE70A986D
:102D6000808910B3FFE70B9843F60001C4F201011C
:102D7000884210D0FFE70B9844F20041C4F20001F2
:102D8000884208D0FFE70B9844F60001C4F2000126
:102D9000884201D1FFE707E045F6DC60C0F600009D
:102DA000C12100F0A1F8FFE7FFE70B9805900B9811
:102DB000008A099009984CF6FF71084009900A981A
:102DC000C18809980843099009980B9908820B98C3
:102DD0008089099009984EF6F311084009900A99E4
:102DE00088880A8910434989014309980843099052
:102DF00009980B9988810B98808A099009984FF659
:102E0000FF41084009900A98818909980843099070
:102E100009980B9988826846FFF742FB059843F6AC
:102E20000001C4F20101884203D1FFE70398089032
:102E300002E002980890FFE70B98808900040028C0
:102E40000AD5FFE70898192148430A9909684900FB
:102E5000B0FBF1F0079009E00898192148430A995E
:102E600009688900B0FBF1F00790FFE7079848F286
:102E70001F51C5F2EB11A0FB01016FF00F0000EA3A
:102E800051000990079A09980009642100FB11205C
:102E900006900B9880890004002810D5FFE706995A
:102EA000322000EBC10048F21F51C5F2EB11A0FB2C
:102EB0000110C0F342110998084309900FE00699E8
:102EC000322000EB011048F21F51C5F2EB11A0FBBC
:102ED0000110C0F34311099808430990FFE70998CE
:102EE0000B9908810CB080BD80B582B00190009133
:102EF0000199009A45F6D350C0F60000FDF7F4F9A9
:102F0000FFE7FEE782B001900091FFE743F6000083
:102F1000C4F2010000880006002801D4FFE7F5E7AD
:102F20009DF8040043F60401C4F2010108800198F1
:102F300002B0704710B592B000201190FFF76CFD01
:102F4000FFF79EFDFEF7B2FEFFF73AFAFFF74AFAE7
:102F500045F69550C0F6000045F62A61C0F600011E
:102F6000FDF7C2F945F67250C0F60000FDF7BCF956
:102F7000FFE7FEF7AFFEFFF74DFBFFF7FBFBFEF7AA
:102F800045FF40F25420C2F20000B0F9001040F2B8
:102F90005620C2F20000B0F9002040F25820C2F2E0
:102FA0000000B0F9003045F6EF50C0F60000FDF724
:102FB0009BF940F25C20C2F20000006802F070F859
:102FC0000690079140F26020C2F20000006802F013
:102FD00067F80890059140F26420C2F20000006892
:102FE00002F05EF8DDF814C0069A079B8646089842
:102FF0000C466946CC60C1F808E0C1F804C008601E
:1030000045F60960C0F60000FDF76EF940F2682051
:10301000C2F20000006802F043F80A900B9140F2FF
:103020006C20C2F20000006802F03AF80C9009919E
:1030300040F27020C2F20000006802F031F8DDF8C2
:1030400024C00A9A0B9B86460C980C466946CC60B5
:10305000C1F808E0C1F804C0086045F6B450C0F6F5
:103060000000FDF741F940F27820C2F2000000684C
:1030700002F016F80E900F9140F27420C2F2000098
:10308000006802F00DF810900D9140F27C20C2F221
:103090000000006802F004F8DDF834C00E9A0F9BBF
:1030A000864610980C466946CC60C1F808E0C1F825
:1030B00004C0086045F63450C0F60000FDF714F96E
:1030C000FA20FFF709F854E75FEA400C08BF91F0D7
:1030D000000F4FEA8C234FEAC12243EA51514FEAD5
:1030E0001C5018BF00F5F0404FEA300018BF41F007
:1030F00000415FEA6C5C00F02980BCF1FF3F08BF33
:1031000040F080407047130C06BF12044FF0100CC3
:103110004FF0000C130E04BF12020CF1080C130F39
:1031200004BF12010CF1040C930F04BF92000CF1C8
:10313000020CD30F04BF52000CF1010C11464FF0EA
:103140000002A0F11F00A0EB0C00704711F0004F2F
:1031500008BF704731F000413FF4D5AF0B0C06BFFC
:1031600009044FF0100C4FF0000C0B0E04BF0902C5
:103170000CF1080C0B0F04BF09010CF1040C8B0FB0
:1031800004BF89000CF1020CCB0F04BF49000CF105
:10319000010CCCF1200322FA03F341EA030102FA05
:1031A0000CF2A0EB0C0000F10100704723F07F4708
:1031B00020F07F4C80EA030000F00040ACEB0703F6
:1031C00003F57C5303F1FF032DE9804909B44FEA6D
:1031D000144324EA03484FEA154B25EA0B4E0FF23D
:1031E000042606EB13273E7803FB0667C7F50007A6
:1031F00007FB06F64FEAD64606F102064FEA5437B9
:1032000007FB066CCCF1005C4FEA1C472CEA074C2C
:103210000CFB06F507FB06F404EB15464FEA961681
:1032200049085FEA320234BF00204FF000404FEA05
:10323000D13706FB07FC4FEA1C4C0CFB0BF7D21BEB
:1032400003FB0CF761EB07010CFB0EF7B0EB07403B
:1032500072EB17420CFB08F734BFA2EB0742B2EB4C
:10326000074261EB17414FEA0C444FEA910706FB16
:1032700007FC4FEA1C4C0CFB0BF7B0EBC74072EBA2
:10328000573203FB0CF734BFA2EBC742B2EBC74285
:1032900061EB57310CFB0EF7B0EBC70072EB5772C6
:1032A0000CFB08F734BFA2EBC702B2EBC70261EB1D
:1032B00057714FEA816141EA92114FEA826242EA14
:1032C00090124FEA806004EBCC04039F4FEAD137A1
:1032D00006FB07FC4FEA1C4C0CFB0BF7D21B03FB55
:1032E0000CF761EB07010CFB0EF7B0EB074072EB3C
:1032F00017420CFB08F734BFA2EB0742B2EB0742C0
:1033000061EB17414FEA8C5504EB9C244FEA91077F
:1033100006FB07FC4FEA1C4C0CFB0BF7B0EBC7405D
:1033200072EB573203FB0CF734BFA2EBC742B2EB90
:10333000C74261EB57310CFB0EF7B0EBC70072EBE5
:1033400057720CFB08F734BFA2EBC702B2EBC702FF
:1033500061EB57714FEA816141EA92114FEA826253
:1033600042EA90124FEA806015EB4C2544F10004CC
:103370004FEAD13706FB07FC4FEA1C4C0CFB0BF75E
:10338000D21B03FB0CF761EB07010CFB0EF7B0EB54
:10339000074072EB17420CFB08F734BFA2EB074261
:1033A000B2EB074261EB17414FEA813141EA9241AA
:1033B0004FEA823242EA90424FEA80304FEA0C767E
:1033C00015EB1C1544F1000448EA03434EEA0B4890
:1033D0004FF0000EB2EB080C71EB030724BF6246FE
:1033E00039464EEB0E0E4FF0000B0018524149418A
:1033F0004BEB0B0BB2EB080C71EB03077BF1000BF3
:1034000024BF624639464EEB0E0E4FF0000B0018FB
:10341000524149414BEB0B0BB2EB080C71EB03072C
:103420007BF1000B24BF624639464EEB0E0E51EA8B
:10343000020718BF46F0010616EB0E7655F10002A2
:1034400054F1000103D5BDE88901BDE80088BDE85D
:103450008901BDE80048B619524141EB0101A3F1D1
:103460000103704780807F7E7D7C7B7A79787776D8
:1034700076757473727171706F6E6E6D6C6C6B6A51
:103480006A696868676666656464636362616160EF
:10349000605F5F5E5E5D5D5C5C5B5B5A5A5959586C
:1034A00058575756565555555454535352525251D6
:1034B000515050504F4F4F4E4E4D4D4D4C4C4C4B2C
:1034C0004B4B4A4A4A494949484848474747474673
:1034D00046464545454444444443434343424242AF
:1034E000424141419C46002B30D477002BD04FEA1B
:1034F00037071CB503B44FF010004FF01001BAF1BC
:10350000000F06D0BCF1000FDCBF40F0080040F017
:1035100008014FF000000FBCBDE810400BF1010B9B
:10352000BBF1010F08BF5FEA170722BF12F10102CA
:1035300011F101014FF0004143F1000300F00040A0
:1035400043EA00007047F9D35708D0E746EA064639
:103550004FEA164613F1400F1FDD13F1200FDFBFB6
:1035600016430A46002120335B42BED0C3F1200738
:1035700046EA06464FEA164602FA07F746EA070603
:1035800022FA03F2C3F1200701FA07F742EA070221
:1035900021FA03F14FF00003A7E746EA020646EAE4
:1035A00006464FEA164646EA0106BCBF46EA06460C
:1035B000360C4FF000034FF000024FF0000194E78B
:1035C0002DE9804C70B49A46934691E8380007C8BC
:1035D00031EA400C48BF34EA430C03D5FFF7E6FD5F
:1035E000FFF780FFF0BCBDE8008C2DE9804C70B483
:1035F0009A46934691E8380007C810F0804F08BFFC
:1036000013F0804F03D100F005F8FFF76BFFF0BC1B
:10361000BDE8008C20F07F4723F07F4C80EA030058
:1036200000F0004007EB0C03A3F57C53A3F1FE036D
:1036300092F0000F00F0B38095F0000F00F077805B
:103640002DE901494FEA114021EA00484FEA1446AA
:1036500024EA064700FB06FC08FB06F607FB08F811
:1036600018EB06484CEB164C00FB07F718EB074825
:103670004CEB17404FEA124B22EA0B4E4FEA15462D
:1036800025EA06470BFB06FC0EFB06F607FB0EFEC3
:103690001EEB064E4CEB164C0BFB07F71EEB074ED2
:1036A0004CEB174B18EB0B0840F1000018EB0E0B1E
:1036B00058EB000840F100008F1A4FF000014FF066
:1036C00000063CBFC943661B14BFB5EB040C0021C8
:1036D0003CBFC943F61B4FEA174427EA04454FEAAB
:1036E0001C472CEA074C04FB076205FB07F70CFBA1
:1036F00005F616EB074642EB174204FB0CFC16EBF3
:103700000C4642EB1C421BEB060658EB0202414101
:103710004EEA8E0E46EA9E0601D5BDE80189B6192D
:10372000524141EB0101A3F10103BDE801894FEAD8
:10373000144524EA05464FEA114721EA074C05FBE8
:1037400007F406FB07F70CFB06F111EB074144EB0E
:10375000174405FB0CFC11EB0C4144EB1C444FEAF5
:10376000124722EA074C05FB07F206FB07F70CFBA2
:1037700006F616EB074642EB174205FB0CFC16EB70
:103780000C4642EB1C456A1854F1000148BF7047D3
:10379000B619524141EB0101A3F10103704795F0C5
:1037A000000F37D04FEA114221EA02464FEA144790
:1037B00024EA074C02FB07F106FB07F70CFB06F4B3
:1037C00014EB074441EB174102FB0CFC14EB0C44D7
:1037D00041EB1C414FEA154725EA074C02FB07F570
:1037E00006FB07F70CFB06F616EB074645EB1745FD
:1037F00002FB0CFC16EB0C4645EB1C42121951F176
:10380000000148BF7047B619524141EB0101A3F1D5
:10381000010370474FEA144524EA05464FEA114771
:1038200021EA074C05FB07F106FB07F70CFB06F244
:1038300012EB074241EB174105FB0CFC12EB0C426B
:1038400051EB1C414FF0000648BF7047921841EB06
:103850000101A3F101037047490050EAC12018BFDC
:1038600004204A0D18BF40F0010040F2FF72B2EB95
:10387000515F08BF40F00200012808BF05207047D3
:103880004100080218BF04200A0E18BF40F00100D2
:103890004FF07F4232EA010108BF40F002000128E8
:1038A00008BF0520704700002DE9F74F144694B07B
:1038B0000021C4E902111599079121F00045C94979
:1038C0008D4206DC1599C4E9000117B00020BDE85F
:1038D000F08FC549DFF814A3A9423CDD0799C44E17
:1038E0000029C44FC44A1599534619DD01F0EAFA7C
:1038F000554506D0C14AC24B01F0E4FAC4E90001C3
:103900000AE04FF0D352BE4B01F0DCFA32463B46A0
:1039100001F0D8FAC4E9000117B00120BDE8F08F2A
:1039200000F060FF554506D0B44AB54B00F05AFF91
:10393000C4E900010AE04FF0D352B14B00F052FF4E
:1039400032463B4600F04EFFC4E9000117B04FF08D
:10395000FF30BDE8F08FAB49A942159978DB21F023
:10396000004183468846A84AA84B01F0A1F90022ED
:10397000A74B00F037FF01F041F9099001F06DF914
:1039800006460F469C4A534601F092F943465A4672
:1039900001F08CFA80468A46984A994B304639465F
:1039A00001F086F92A0D01250B924246534601F09B
:1039B0007DFA032DC4E9000139D00B98C1F30A51F7
:1039C000401A05EB45111139814230DA9148C3465E
:1039D000784400EB0510CDF80CA00C90D0E9002342
:1039E0003046394601F064F902460B4604910690D0
:1039F0005846039901F066FA80468A4602460B460D
:103A00005846039901F05EFA049B069A01F05AFAAF
:103A100083460C9803913946D0E90223304601F0E1
:103A200047F95A46039B01F04DFA6D1CBDE7079814
:103A30000028A2BF099817B0BDE8F08F616881F037
:103A400000416160099817B04042BDE8F08FFFE780
:103A500084461598C1F31301C0F30A50A0F2F53063
:103A60004FEA601800F01F06C6F1200013900020F6
:103A70000690079041F4801E05206D4676B1664A97
:103A800008EB00017A4452F8213002EB8101B34087
:103A90004A68139922FA01F1194305E05F4908EBDE
:103AA0000002794451F82210A1FB0E27A1FB0C1350
:103AB0001A449A4234BF0123002303EB070A05EBA3
:103AC0008003D3E901B70F448F4234BF01210021A5
:103AD00093448B4411B1934502D903E0934501D23D
:103AE000012100E00021C3E901B7514445F820104D
:103AF000011EA0F10100C1DC0298059F00F10050F9
:103B0000800F12900298DDE90356800001F0A5F8BD
:103B1000834628460D9101F0B7F86FF01D0201F0C1
:103B200068FFCDE90E01304601F0AEF86FF03D02BE
:103B300001F05FFF80468A46384601F0A5F86FF035
:103B40005D0201F056FF074642465346119100F0D0
:103B500049FEDDE90E2300F045FE5A460D9B00F0BC
:103B600041FE00250E465A4628460D9B01F0AAF953
:103B7000DDE90E2301F0A6F94246534601F0A2F911
:103B80003A46119B01F092F9DFF898A0244A534677
:103B900001F08EF807468846234A244B31462846D2
:103BA00001F086F83A46434600F01CFE0746884678
:103BB0004FF0A84253463146284601F079F83A467C
:103BC000434600F00FFE159A12F0004F04D0129AEF
:103BD00081F0004152421292C4E90001129817B0DC
:103BE000BDE8F08FFB21E93F7CD90240FB21F93F82
:103BF0007370032E8A19A33B000040543163621A8C
:103C000061B4D03DFB21394183C8C96D305FE43FC9
:103C10000000E03F6C210000E8200000CA20000006
:103C2000182D4454FB21F93D3326A611460B113CB7
:103C30002DE9FF4D21F0004807460C46B8F1795FA9
:103C400008DA00F0DBFF002801BF0020324904B091
:103C5000BDE8F08D3A4623461046194601F028F893
:103C6000054602462D480E460B460621784400F0D4
:103C70005DF82A46334601F01BF8DDE9022382464F
:103C80008B463846214601F013F804460F4652464B
:103C90005B462846314601F00BF822463B4601F0D0
:103CA00011F907468A464FF0FF322846314601F0A7
:103CB000A0FE1B4A90450ADA3A46534601F002F943
:103CC00004B00022BDE8F04D134B01F0EFB8154AE7
:103CD0004245A8BFA8F500154FF00004B8BF124D2B
:103CE00022462B4601F0EEF80646884622462B4631
:103CF0000020094901F0E6F804460D463A465346CD
:103D00003046414601F0DEF804B022462B46BDE8BD
:103D1000F04D01F0CBB800000000F03FA01E000005
:103D20003333D33F0000E93F0000D23F2DE9F0419B
:103D30004F1E00EBC7010446D1E9000115461E469F
:103D400037F006020DD02A46334600F0B1FF7F1E41
:103D500004EBC703D3E9002300F044FD37F006026B
:103D6000F1D1022F25D0042F13D0062F18BFBDE8A4
:103D7000F0812A46334600F09BFFD4E90A2300F085
:103D800031FD2A46334600F093FFD4E9082300F0C2
:103D900029FD2A46334600F08BFFD4E9062300F0C4
:103DA00021FD2A46334600F083FFD4E9042300F0C6
:103DB00019FD2A46334600F07BFFD4E9022300F0C8
:103DC00011FD2A46334600F073FFD4E90023BDE815
:103DD000F04100F007BD00002DE9FF4D054621F040
:103DE000004084B00C46B0F1795F0BDA2846FFF74B
:103DF00033FD042808BF00F06FF8284608B02146BC
:103E0000BDE8F08D2A460B46104600F051FF0646ED
:103E10000F462A46234600F04BFF804626488A4636
:103E200032463B4605217844FFF780FF83461098D1
:103E3000029160B3214A224B4046514600F038FFC0
:103E4000CDE900015A4640465146029B00F030FF42
:103E500082468846DDE906014FF0FF3201F0C9FDD8
:103E60005246434601F02EF832463B4600F020FF12
:103E7000DDE9062301F026F8DDE9002301F022F850
:103E800008B02A462346BDE8F04D01F00FB80B46B6
:103E90005A463046394600F00BFF084A084B00F0FE
:103EA000A1FC4246534600F003FF08B02A462346D1
:103EB000BDE8F04D00F096BC061E00004955555572
:103EC0005555C5BF012201F094BD0022134610468E
:103ED000114600F037BD0000024A0020110701F032
:103EE00088BD000001FDFFFF012101F0B0BD01F020
:103EF00003B90021084601F09DB96FF05E01080783
:103F000001F0A5BD2DE9F04D0D4614464FF07F415F
:103F1000B1EB440F9EBF4FF0FF312960BDE8F08D3B
:103F20004FF0004040EA0421C4F3C750783810F045
:103F30001F024A4B4FEA601CC2F120067B44C4F3C7
:103F4000C750A0F178004FEA601003EB800053F8EF
:103F50002C3008BFD0E901C612D0D0F804C093407D
:103F60002CFA06F73B4387680CFA02FC27FA06F89E
:103F7000C06807FA02F2F0404CEA080C42EA000678
:103F8000A3FB0132ACFB01C0A6FB016101EB0C06F7
:103F90008E4234BF4FF0010C4FF0000CC118614449
:103FA000BCF1000F02D0814202D903E0814201D26C
:103FB000012000E00020104400F120024FEA921896
:103FC0008006CA0C40EA42304F03C5F8008001F079
:103FD00043FA8246384601F057FA6FF0120101F0B9
:103FE00036FD0746304601F04FFA6FF0250101F02B
:103FF0002EFD83463946504601F07EF8594601F0C1
:104000007BF800F500666FF30B065146304601F071
:1040100045FC394601F042FC594601F0ADFB104920
:1040200001F0AEFA07460F49304601F0A9FA3946C9
:1040300001F062F807460C49304601F0A1FA394612
:1040400001F05AF814F0004F08BFBDE8F08DC8F138
:10405000805180F000402960BDE8F08DCC1C00004C
:10406000DB0FC92F22AAFD290000C92F30380A28EA
:1040700001D2012070470020704700002DE9F04771
:104080004FF0684202EB40030C460546B3F1654F22
:104090003CBF02EB4102B2F1654F80F0CD8000BF22
:1040A000C0F3C752C1F3C753D21A1B2A06DD10F062
:1040B000004F14BF87488848BDE8F08712F11A0FF7
:1040C0002FDA11F0004F06D010F0004F0CBF8348DC
:1040D0008348BDE8F0872146284601F0ABF8064644
:1040E000FFF7CEFB042808BFFFF707FF2846FFF7BE
:1040F000C7FB05462046FFF7C3FB04463046FFF7E3
:10410000BFFB042D18BF052D08D1042C18BF052CAA
:1041100004D1002804BF0220FCF718F93046BDE89E
:10412000F0874200B2EB410F25D910F0004F19BFC4
:104130006C4F6D4E6D4F6E4E224685F00044154615
:104140000A4680F0004110460A1A5200B2F1807F00
:104150003ED248406749DFF8A0A110F0004F18D0C8
:104160004FF03F48384601F099FB0746514630462C
:1041700001F094FB17E011F0004F04BF0026374612
:10418000E2D010F0004F19BF5C4F5D4E5D4F5E4EA8
:10419000DAE74FF07C58384600F0AEFF074651464C
:1041A000304600F0A9FF06464146284601F0E8F9EE
:1041B000214600F0A1FF82462146404601F0E0F989
:1041C000294601F0D9FA514601F034F8044604E0DA
:1041D0002146284601F02EF80446014601F0D0F9A8
:1041E00080464A4901F0CCF9494900F085FF414633
:1041F00001F0C6F9474900F07FFF414601F0C0F9E0
:10420000454900F079FF414601F0BAF9434900F011
:1042100073FF05464146204601F0B2F9294601F0F8
:10422000AFF9314600F068FF214600F065FF3946DE
:10423000BDE8F04700F060BF4FF07F42B2EB400FA7
:1042400028BFB2EB410F03D2BDE8F047FFF74FBEE6
:1042500040EA01035B0008BF44F0FF410AD0B2EB23
:10426000400F08BFB2EB410F06D125F0804024F08B
:10427000804105460C4613E7B2EB400F12BF5FEAE0
:10428000410345F0FF4004F000413FF409AFB2EBB9
:10429000410F12BF5FEA400205F0004044F0FF41C9
:1042A0003FF4FEAE4A0092EA40033FF5F9AE002A21
:1042B000ACBF4FF09F464FF03E56314601F060F9DB
:1042C00005463146204601F05BF904462846214662
:1042D000E6E60000DB0FC9BFDB0FC93FDB0F49403B
:1042E000DB0F49C00000C9BF22AAFDB90000C93FC9
:1042F00022AAFD390060ED3EC30ACE37000049C056
:1043000022AA7DBA0000494022AA7D3A2DAD65BDA2
:104310008FB8D53D0FB511BE61C84C3EA8AAAABE44
:1043200000B5244B21F0004287B09A42DCBF002246
:10433000134629DD204B9A4208D140B94FF00100C5
:10434000FCF704F8FFF7C1FD07B000BD03DBFFF782
:10435000B9FD07B000BD02AAFFF7A6FA10F00301ED
:1043600004BF0DF1080C9CE80F000DD001200129BD
:104370000ED0022914D00DF1080C00909CE80F001B
:10438000FFF72AFD07B000BDFFF752FC07B000BDE4
:104390000DF1080C00909CE80F00FFF71DFD05E0F3
:1043A0000DF1080C9CE80F00FFF742FC07B081F00C
:1043B000004100BDFB21E93F0000F07F2DE9F843FB
:1043C000044602464F486946B0EB420F09D94FF008
:1043D000E640B0EB420F94BF00204FF0FF3000905A
:1043E00030E0494B22F00040834271D947492046D2
:1043F00001F0C6F801F090F9804601F011F800F0E4
:10440000030000904249404601F0BAF80546414990
:10441000404601F0B5F806463F49404601F0B0F885
:1044200007463E49404601F0ABF8214601F0A4F9A9
:10443000394601F033FA314601F030FA294601F0ED
:104440002DFA04462546009C002C45DB294614F035
:10445000010F08461CD001F093F80646304901F0E0
:104460008FF8304900F048FE314601F089F82E49B6
:1044700000F042FE314601F083F8294601F080F851
:10448000294600F039FE14F0020F1CD0BDE8F88375
:1044900001F076F80546254901F072F8244900F04C
:1044A0002BFE294601F06CF8224900F025FE294632
:1044B00001F066F84FF07E5100F01EFE14F0020F7E
:1044C00008BFBDE8F88380F00040BDE8F883FFE74F
:1044D0001046FFF717FDB4E76800B0F17F4F3CBF0F
:1044E0004FF07E50BDE8F88307D14FF00100FBF795
:1044F0002DFFBDE8F843FFF7FCBC2846BDE8F843B4
:10450000FFF7F2BCB61F927E490E494683F9223F5F
:104510001A61342C0020A23300A0FD390000C93FED
:10452000336D4CB9DA82083CA0AA2ABEB93AB2BAB5
:10453000CA9F2A3DDDFFFFBE00B5254B21F000429A
:1045400087B09A4203DC0022134600922BE0214BF5
:104550009A4208D140B94FF00100FBF7F7FEFFF790
:10456000B4FC07B000BD03DBFFF7ACFC07B000BD37
:1045700002AAFFF799F910F003014FF001000DD0E6
:10458000012914D002291AD00DF1080C9CE80F0063
:10459000FFF74EFB07B081F0004100BD0DF1080CA4
:1045A00000909CE80F00FFF717FC07B000BD0DF16D
:1045B000080C9CE80F00FFF73BFB07B000BD0DF1B6
:1045C000080C00909CE80F00FFF706FCE2E70000F3
:1045D000FB21E93F0000F07F2DE9F8430446024645
:1045E00052486946B0EB420F09D94FF0E640B0EBB4
:1045F000420F94BF00204FF0FF30009030E04C4B52
:1046000022F00040834271D94A49204600F0B8FFA9
:1046100001F082F8804600F003FF00F003000090F4
:104620004549404600F0ACFF05464449404600F08D
:10463000A7FF06464249404600F0A2FF074641490F
:10464000404600F09DFF214601F096F8394601F002
:1046500025F9314601F022F9294601F01FF90446F7
:104660002546009C002C45DB294614F0010F084626
:104670001ED000F085FF0546334900F081FF334925
:1046800000F03AFD294600F07BFF314900F034FD8F
:10469000294600F075FF4FF07E5100F02DFD14F01B
:1046A000020F08BFBDE8F88380F00040BDE8F88342
:1046B00000F066FF0646274900F062FF264900F039
:1046C0001BFD314600F05CFF244900F015FD31462A
:1046D00000F056FF294600F053FF294600F00CFD7C
:1046E00014F0020FE0D1BDE8F883FFE71046FFF7B2
:1046F00009FCB4E76800B0F17F4F09D22846FFF704
:10470000BFF8042808BFFFF7F8FB2846BDE8F88388
:1047100006D10120FBF71AFEBDE8F843FFF7E9BB1D
:104720002846BDE8F843FFF7DFBB0000B61F927EC6
:10473000490E494683F9223F1A61342C0020A233E6
:1047400000A0FD390000C93FB93AB2BACA9F2A3D5C
:10475000DDFFFFBE336D4CB9DA82083CA0AA2ABE49
:1047600070B5054601F012F8044620F00040C0F193
:10477000FF40C00F08D025F00040C0F1FF40C00F3F
:1047800004BF0120FBF7E2FD204670BD10B50029F3
:104790000AD00878002807D005487844FDF796F934
:1047A000002801D0002010BD0248784410BD000050
:1047B000BA170000B217000010B500290AD0087817
:1047C000002807D005487844FDF780F9002801D07B
:1047D000002010BD0248784410BD0000AA17000058
:1047E000A217000010B591EA030F48BF83F0004301
:1047F00000F17083841A71EB030C05D2121943EB9C
:104800000C03001B61EB0C014FEA1154A4EB135C89
:10481000DFF81CE11EEA430F18BF9EEA445F00F078
:10482000748021EA045123EA0E0343F48013DCF17F
:10483000200E32D322FA0CFE10EB0E0023FA0CFEEF
:1048400041EB0E01CCF1200E03FA0EFE10EB0E0030
:10485000CCF1200E51F10001B1F5801F32D201EBF5
:10486000045112FA0EF2BDE8104058BF7047401CC8
:1048700038BF5FEA420218BF7047002814BF20F01B
:10488000010041F100014FEA410313F5001F38BF59
:104890007047A1F1C04100F003BB012A43EB0302C2
:1048A000ACF1200CDCF11F0E32BF4FF0000E23FAEA
:1048B0000CF310EB030041EB0451B4EB115FD0D0CB
:1048C000A1EB045101F58011490801EB04515FEAA5
:1048D00030000ED350F1000038BF12FA0EFE08D19E
:1048E000BDE81040C9E7401C38BF5FEA4202CAD1A8
:1048F000C3E7BDE810404FEA410313F5001F38BF7E
:104900007047A1F1C04100F0CBBA9EEA445F08D0E5
:1049100011EA5E0FBDE8104004BF01F00041002025
:104920007047BDE8104070B500F06CFA64FBBE3E05
:104930000000E0FF02494FF0000001F028B800BF7E
:104940000000F87F2DE9C04130B4DFF8A8C23CEA8E
:10495000111418BF3CEA131400F0F0801CEA111483
:1049600081EA030544EAD57418BF1CEA131500F068
:10497000CB80A4EB050404F17F7404F500344FF000
:10498000004545EAC12145EAC32341EA505143EAC3
:1049900052534FEAC0204FEAC222994208BF9042C8
:1049A00000F0A0804FEA13650FF24816765D4FEADB
:1049B000134506FB05F7C7F1807706FB07F74FEABB
:1049C000D737A7FB03687642A7FB06CEC8F5803829
:1049D00038BFA8F1010807FB08E6A6FB028C4FF0E0
:1049E000000EE6FB03CED8F100086FEA0C0C5CF178
:1049F000000C6FEA0E0E4EF1004EA6FB0C584FF065
:104A00000007E6FB0E87A1FB08C6A0FB07CE16EB4E
:104A10000E064FF0000545F10005E1FB076515F1B5
:104A2000E04E7EBFA4F580345FEA46066D4116F184
:104A3000800745F100054FEA172747EA05674FEA67
:104A400015254FEA0666A6F1DE46B6F1805F20D94D
:104A5000384605EBC47124F0010C01EB0C11BCF1DC
:104A6000FE6F02D8F0BCBDE8008124425CBF01F5B6
:104A7000801E9EEAC47F02D4F0BCBDE800812442BF
:104A800000F13980A1F1C041F0BCBDE8004100F067
:104A900007BA4FEAD02040EA41504FEAD1214FEA0D
:104AA000D22242EA43524FEAD323A7FB028607FBF6
:104AB000036605FB02661EEA0E0F58BFA6EB005602
:104AC000B6EB00564FEA520E4EEAC37E18EB0E0EBE
:104AD00056EB530EBCD518EB02085E417F1C55F116
:104AE0000005B5E74FF480154FF000074FF00006C2
:104AF0004FF00008ACE701F1C04101F000414FF078
:104B00000000F0BCBDE800810CEA131511EA0C1F8F
:104B100000D00CE013EA0C1F00F025804FF00000DD
:104B200081EA030101F00041F0BCBDE80081F0BC66
:104B3000BDE8004181EA030100F0B2B9F0BCBDE874
:104B4000004170B500F05EF9097EFC3E00F007B848
:104B50004FF0000081EA030101F00041704781EA53
:104B6000030100F09DB9F0BCBDE8004122494FF0BF
:104B700000007047FFFDFBF9F7F5F4F2F0EEEDEB06
:104B8000E9E8E6E4E3E1E0DEDDDBDAD8D7D5D4D34B
:104B9000D1D0CFCDCCCBCAC8C7C6C5C4C2C1C0BF97
:104BA000BEBDBCBBBAB9B8B7B6B5B4B3B2B1B0AF9D
:104BB000AEADACABAAA9A8A8A7A6A5A4A3A3A2A181
:104BC000A09F9F9E9D9C9C9B9A999998979796953C
:104BD00095949393929191908F8F8E8E8D8C8C8BD8
:104BE0008B8A898988888787868585848483838260
:104BF000828181800000FF070000F87F4FEA4103B7
:104C00004FEA5353A3F58063D3F11E03C8BFD3F11A
:104C1000210C0CDD4FF0004242EAC12242EA505220
:104C200032FA03FC8CEAE17CACEBE1707047102BAC
:104C3000C4BF0020704703F5787CBCF1FF3F04D06F
:104C40006FF0004282EA2100704770B500F0DAF898
:104C50004992248000207047F2E710F0004248BFDC
:104C60004042B0FA80F310FA03F10AD0C3F11D03F9
:104C700003F5806302EB03524FEA415002EBD1216E
:104C800070474FF000007047B0FA80F310FA03F15C
:104C90000AD0C3F11D0303F580634FEA03524FEAC4
:104CA000415002EBD12170474FF0000070470000E7
:104CB00070B5DFF848C11CEA111E1EBF1CEA1315AF
:104CC0009EEA0C0F95EA0C0F00F06F8081EA030456
:104CD0004EEAD47EAE4421EA4C1123EA4C1341F44F
:104CE000801143F48013AEF17F7EA1FB024CA0FB48
:104CF0000365361955EB0C05A1FB034C4CF1000381
:104D0000A0FB021C16EB0C06654153F1000309429F
:104D100018BF46F0010613F4007F0BD14FEA0331B0
:104D20004FEA053041EA155140EA165034036FF05E
:104D300003020AE04FEAC3214FEAC52041EA555178
:104D400040EA5650F4026FF0020202EB2E4201EBF1
:104D5000025585EACE710AD05FEA440C18BF24F0F0
:104D6000004450F1000041F1000120EAD47040F20B
:104D7000FE7C624500D270BDA84214BF4FF0804453
:104D80004FF04044002E08BF0024BEF1806FA8BF42
:104D9000A1F1C041BDE8704080F2828001F1C041C4
:104DA00001F000414FF0000070470CEA13159EEA35
:104DB0000C0F18BF95EA0C0F06D081EA030E4FF0D6
:104DC00000000EF0004170BD00F01CF88900013EAB
:104DD00000F007B800F009B84FEA430C5FEA5C5CEA
:104DE00008D081EA030100F05BB84FEA410C5FEAAA
:104DF0005C5CF6D102494FF0000070470000FF07ED
:104E00000000F87F0EF1020E2EF0030E5EF8046B28
:104E1000364205D4012A43EB030515F5001F12D8CD
:104E2000012841EB010C1CF5001F0CD80ED14FEAF4
:104E3000D17C0CEB4C0C0CF1020C15F5001F08BFDB
:104E40004CEBD37C04E04FF0080C01E04FEAD37C3C
:104E50000CEB4C0526FA05F606F00706B6F1040C35
:104E600006D20EEB860CBDE870404CF0010C60479A
:104E7000DFE80CF0090B02024FF00041A1F5002120
:104E80004FF0000070BD19461046012851EB010497
:104E900018BFD4F5001484BF002001F0004170BD9C
:104EA0000808A0F500114FEA3101704710B591EAEA
:104EB000030F81F000413FF59DAC83F0004300F00B
:104EC00009B8000010B591EA030F48BF83F0004312
:104ED0003FF590AC841A71EB030C07D28CF0004CB8
:104EE000121943EB0C03001B61EB0C014FEA115448
:104EF000A4EB135CDFF8A4E11EEA430F18BF9EEA9F
:104F0000445F00F0B48021EA045123EA6E03524268
:104F1000C3EB6E0338BF5B1EDCF1200E25D322FAF3
:104F20000CFE10EB0E0043FA0CFE41EB0E01CCF12F
:104F3000200E03FA0EFE10EB0E00CCF1200E51F104
:104F4000000129D401EB045112FA0EF2BDE8104021
:104F500058BF7047401C1CBFB2F1004F704700287B
:104F60000CBF491C20F00100704712EB020E43EB0E
:104F7000030218BF4FF0010E4EEA4202ACF1200CC2
:104F8000DCF11E0E56D943FA0CFE10EB0E00CCF1EC
:104F90001E0E51F1FF31D5D50EF1010E12FA0EFEA3
:104FA000404141EB010101EB445C5FEA5C5C10D9DC
:104FB00001EB045110EBDE7038BFBEF1004FBDE8CD
:104FC000104018BF704700280CBF491C20F001009A
:104FD000704734D24FEAD42C24F4006411F5001148
:104FE0001BD0B1FA81F20B3AA41AA41ED2F120030D
:104FF000914030FA03F31943904001EBCC7101EB7F
:105000000451002CBDE81040A8BF704701F1C04119
:1050100001F000414FF000007047B0FA80F310FA41
:1050200003F102D1BDE810407047E41A173C48056F
:10503000C90AE2E701EB0451BDE81040704749108E
:105040004FEA300001EB0451BDE8104002E04FF0A0
:10505000000170474A0008BF0042F8D0B2F5001FB7
:1050600028BF704701F000414FF0000070479EEAF2
:10507000445F07D011EA5E0FBDE8104004BF002175
:1050800000207047BDE8104070B5FFF7BBFE00BFC1
:1050900040DFF63E104683F0004170470000E0FF1D
:1050A00043004FEAD30C4FEA3C0C43401FBF40077C
:1050B0000CF1605113F0FE4F70471CF0006F03D1EC
:1050C0000CF00041002070470CF0004343EA5070A0
:1050D00040EACC0010B500F0D4FA00BF0000009206
:1050E0004FEA0001FFF7DCBE4FF00041A1F50021BF
:1050F0004FF000007047000090EA010F48BF81F0B8
:10510000004100F1D283421A3CBF801A89184FEA4D
:10511000D052A2EBD1534FF07F4C1CEA410F18BF85
:105120009CEA026F00F03B804FF0004C4CEA0020FC
:105130004CEA012121FA03FC10EB0C0C1ED202F107
:10514000FF325FEA1C2040EBC25038BF70471CF0B2
:105150007F0F4FEA400C18BFBCF17F4F38BF70473C
:10516000C3F12003994008BF20F00100BCF17F4F3C
:1051700038BF7047A0F1C04000F0C9BA4FEA3C0008
:10518000000A40EBC25028BF1CF0FF0F4FEA400C52
:10519000E6D018BFBCF17F4F38BF7047EAE79CEA02
:1051A000026F05D010EA5C0F08BF00F000407047A6
:1051B00010B500F066FA00BF64FBBE3E014800F087
:1051C000E6BB00BF0000C07F10B500F0F5F80CBFD3
:1051D0000120002010BD10B500F0EEF814BF012032
:1051E000002010BD10B500F063F98CBF0120002035
:1051F00010BD10B500F05CF92CBF0120002010BDDF
:1052000010B500F089F994BF0120002010BD10B541
:1052100000F082F934BF0120002010BD401058BFBB
:10522000C0F14040491058BFC1F140418142EFF305
:10523000008070474FF47F0C1CEAD0121EBF1CEA9E
:10524000D11392EA0C0F93EA0C0F00F0858090EADC
:10525000010F48BF42F4807240F4000C41F400009A
:105260002CF07F4120F07F4000B5A2EB0302814289
:105270000FF2081CACEB504E9EF800E0C0F10000AD
:105280004FEA4E0E00FB0EFC38BF49004FEA2C1CC3
:105290000CFB0EF34FEACE1E0EEB635E4FEA112CB1
:1052A0000EFB0CFC4FEAC1214FEA1C5300FB03111B
:1052B00002F5FA024FEA112C0EFB0CFC4FEA013109
:1052C0004FEADC4C00FB0C1142EB2242C14228BFEA
:1052D00009184CEB03335DF804EB10EB410143EB91
:1052E000C250B2F57C0F38BF704729D512F0F00FCD
:1052F0001CBF00F1C04000F0004070470081828375
:105300008485868788898B8C8D8E8F9192939596D4
:1053100097999A9C9D9FA0A2A3A5A7A8AAACAEB05E
:10532000B2B3B5B7B9BCBEC0C2C5C7C9CCCED1D463
:10533000D7D9DCDFE2E6E9ECF0F3F7FAFE00000093
:105340004FEA400C0CF1807CBCF17E4F28BF7047C7
:10535000B0F1C04000F0DBB90CEAD11390EA010FC4
:1053600048BF42F48072624538BF634507D213F4E8
:105370007F0F16D080EA010000F00040704710B5A2
:1053800000F07FF9097EFC3E00F005B880EA0100DC
:1053900000F00040704780EA010000F0004000F09B
:1053A000B6B912F47F0F04BF0248704780EA0100CB
:1053B00000F0ADB90000C07F50EA010C00F113808D
:1053C0001CF5000F58BFBCF5000F01D48842704790
:1053D00007D710F5000F58BF11F5000F15D48842FC
:1053E0007047894270471CF5000F04D5BCF5000FCB
:1053F000F7D5814270474FF0807C1CEB400F38BFDF
:105400001CEB410F01D28142704710B500F039F911
:10541000922449004FF000504FF08051FFF7FEBE3C
:1054200041000B0ED3F19E0208D950F400034FEA5D
:10543000032323FA02F048BF4042704710B500F042
:1054400020F900BF49922480002070476FF000428D
:1054500082EA20007047000010F0004148BF40423F
:10546000B0FA80F310FA03F2C3F19D030BD051EAB6
:10547000C35101EB1220530638BF704700F1010001
:1054800008BF20F001007047B0FA80F310FA03F271
:10549000C3F19D030AD0D90501EB1220530638BF92
:1054A000704700F1010008BF20F0010070470000C4
:1054B00050EA010C00F113801CF5000F58BFBCF539
:1054C000000F01D48842704707D710F5000F58BF6E
:1054D00011F5000F15D488427047894270471CF5BA
:1054E000000F04D5BCF5000FF7D5814270474FF08F
:1054F000807C1CEB400F38BF1CEB410F01D2814276
:10550000704710B500F0BDF8922449004FF080506C
:105510004FF00051FFF782BE50EA010C00F11380FA
:105520001CF5000F58BFBCF5000F01D4884270472E
:1055300007D710F5000F58BF11F5000F15D488429A
:105540007047894270471CF5000F04D5BCF5000F69
:10555000F7D5814270474FF0807C1CEB400F38BF7D
:105560001CEB410F01D28142704710B500F089F861
:10557000922449004FF000504FF08051FFF74EBE8B
:105580004FF47F0C1CEAD0121EBF1CEAD11392EA22
:105590000C0F93EA0C0F00F0478090EA010F48BF10
:1055A00042F480724FF0004C4CEA00204CEA01219A
:1055B00002EB0302A0FB0113A2F50002002918BFB1
:1055C00043F001035B0028BF4FEA330342EB224262
:1055D0005FEA132C4CEBC2502EBFBCEB436FB2F50D
:1055E0007C0F70474FEA036CBCF1004F08BF20F0FE
:1055F0000100B2F57C0F38BF70470BD582F0FF0277
:1056000012F5803FC8BF704700F1C040D8BF00F01E
:105610000040704700F5000C5FEA4C0C48BF704733
:10562000B0F1C04000F073B80CEAD11390EA010F5A
:1056300048BF42F48072624538BF634504D280EAB5
:10564000010000F00040704710B500F01AF800BFEC
:105650008900013E00F007B800F009B85FEA410C8C
:105660005FEA1C6C08D080EA010000F050B85FEAE5
:10567000400C5FEA1C6CF6D14FF00040A0F58000B2
:1056800070470EF1020E2EF0030E5EF8044B24421A
:1056900004D44FEA4102B2F17F4F11D84FEA4003E0
:1056A000B3F17F4F0CD80ED14FEAD07C0CEB4C0CF1
:1056B0000CF1020CB2F17F4F08BF4CEBD17C04E03F
:1056C0004FF0080C01E04FEAD17C0CEB4C0324FABC
:1056D00003F404F00704B4F1040C06D20EEB840CBE
:1056E000BDE810404CF0010C6047DFE80CF0070803
:1056F00002024FF00040A0F5800010BD08464200B5
:1057000018BFD2F1807288BF00F0004010BDFF21A9
:1057100041EAD050C00570475FEA400C5FEA1C6C5C
:10572000BCF17F0314D4D3F1170240F31C804FF077
:10573000010C0CFA02FCACF10103034020EA030067
:10574000B3EB5C0208BF10EA0C0F88BF60447047DF
:10575000B3F1FF3F28BF5FEA002C00F0004088BF94
:1057600040F07E507047BCF1FF0FB8BF704710B5D6
:10577000FFF787FF40DBB6BE80F0004090EA010FE4
:105780007FF5C1AC81F0004100F08FB84FEAD051F5
:10579000002988BFD1F1FF0240F275804FEA002056
:1057A00040F0004070B501F17D01490838BF400864
:1057B0000EA2430ED25C040C02FB02F304FB03F3C3
:1057C000C3F14043A3FB0254ED0D45EA442202FB22
:1057D00002F3A0FB03546D42C4F1404438BF641E81
:1057E000A2FB05350023E2FB0453EA0B42EA4342E5
:1057F000A0FB023212F14004E409A2F1210303F0FC
:105800007F031F2B32D904EBC15070BDFEFAF7F3B2
:10581000F0ECE9E6E4E1DEDCD9D7D4D2D0CECCCAD4
:10582000C8C6C4C2C1BFBDBCBAB9B7B6B4B3B2B0C2
:10583000AFAEACABAAA9A8A7A6A4A3A2A1A09F9E05
:105840009E9D9C9B9A9998979796959493939291E5
:1058500090908F8E8E8D8C8C8B8A8A898988878791
:1058600086868584848383828281818004FB04F61A
:10587000B6EB004603D5E64248BF641CC3E7A64228
:1058800058BF641CBFE711F0FF0F02D100F00040C9
:10589000704710B5FFF7F5FE7FDBFFBE90EA010F02
:1058A00048BF81F000413FF52EAC421A04D882F087
:1058B0000042A0EB020011444FEAD052A2EBD153B8
:1058C0004FF07F4C1CEA410F18BF9CEA026F4AD090
:1058D0004FF0004C4CEA00204CEA012121FA03FC75
:1058E000B0EB0C0C0FD412F0FE0F36D05FEA4C0078
:1058F0001DD5001240EBC25038BF70471CF03F0F5F
:1059000018BF70470BE05FEA1C20A2F1010240EBD8
:10591000C25038BF70471CF07F0F18BF7047C3F1EB
:105920002003994014BF401E20F0010070474FEA49
:105930001223800808BF7047B0FA80FCA2EB0C026B
:10594000CCF1280C60FA0CF093EA122F04BF00EBA4
:10595000C25070474FEAC3707047130A5FEADC1009
:1059600008BF7047F6E79CEA026F04D010EA5C0FAC
:1059700008BF0020704710B5FFF783FE40DFF63EFA
:1059800081F000407047FBF707B9FBF73BBA0CF01A
:105990000F03092B08BF082000F07F800A2B0BD0D3
:1059A000082B18BF704708BF1CF0400F0AD04FF0FB
:1059B00000004FF0000170471CF0400F18BF4FF07F
:1059C000004070471CF0100F08D000F07F4220F01C
:1059D000704342EAD3014FEA4370704700F06040E1
:1059E00021F07F4242EA000201F07F4040EA7270FB
:1059F00070474FF0FF0C4CF4E06C1CEA11531CBFD5
:105A00009CEA030C9445C2BFDA4201EB0251704795
:105A1000002B0DD0BCF1000F0FD001F00041002A87
:105A2000A4BF41F0E04141F07F614FF000007047BA
:105A300001F000414FF00000704750EA01334FF091
:105A40009B0C18BF4CF0806C7EF474AF70474FF025
:105A5000FF0212EAD0521CBF92F0FF038B42C2BF7A
:105A6000D14200EBC1507047002A0AD0002B0BD066
:105A700000F000400029A4BF40F0FE4040F40000C8
:105A8000704700F00040704743024FF00B0C18BF06
:105A90004CF0806C7FF492AB70471CF4801F11D0E7
:105AA0001CF4E02F03D06FEACC31490070474FF06F
:105AB0004050EFF3008222F0704242EA000282F38B
:105AC000008870474FF000007047000000000000A1
:105AD0000000000030313233343536373839414236
